:100000000C9430010C9456060C942F060C94580155
:100010000C9458010C9458010C9458010C94080746
:100020000C9458010C9458010C9458010C945801EC
:100030000C9458010C9458010C9458010C945801DC
:100040000C94C30F0C9458010C94A3060C947D06D9
:100050000C9458010C9458010C9458010C945801BC
:100060000C9458010C9458010D0A0020307825306A
:100070003278002553092563203D000D0A00253004
:10008000327800203078002553092563203D000098
:1000900001020304051112131415160000000023B9
:1000A000002600290050415F48494748004C415F05
:1000B0004D45440050415F4C4F570050415F4D4902
:1000C0004E0031362062697473003820626974739F
:1000D0000044697361626C6564006E524632344C50
:1000E00030312B006E524632344C303100323530D4
:1000F0004B42505300324D42505300314D42505309
:10010000005354415455530909203D20307825307F
:1001100032782052585F44523D25782054585F442D
:10012000533D2578204D41585F52543D257820524B
:10013000585F505F4E4F3D25782054585F46554CD0
:100140004C3D25780D0A00504120506F77657209AB
:10015000203D2025530D0A00BB00B400AD00A500D2
:10016000435243204C656E67746809203D20255337
:100170000D0A00D100CA00C2004D6F64656C090908
:10018000203D2025530D0A00E400DA00446174612B
:10019000205261746509203D2025530D0A00FB00A3
:1001A000F500ED0044594E50442F464541545552F8
:1001B0004500434F4E4649470052465F534554550C
:1001C000500052465F434800454E5F5258414444F8
:1001D0005200454E5F41410052585F50575F5030CA
:1001E0002D360054585F414444520052585F4144F8
:1001F00044525F50322D350052585F414444525FA3
:1002000050302D31000A0B0C0D0E0F0000000800BD
:1002100002010000030407000000000000000000CD
:10022000000000250028002B00000000002400270B
:10023000002A00040404040404040402020202026A
:10024000020303030303030102040810204080019A
:10025000020408102001020408102000A1150D104E
:1002600011241FBECFEFD8E0DEBFCDBF11E0A0E06C
:10027000B1E0EEE3FBE302C005900D92AE3BB107A7
:10028000D9F723E0AEEBB1E001C01D92A538B2076B
:10029000E1F711E0CFE2D1E004C02197FE010E9416
:1002A0002F16CE32D107C9F70E9411100C94921D5F
:1002B0000C9400000895CF92DF92EF92FF920F937B
:1002C0001F93CF93DF936C017A018B01C0E0D0E0E4
:1002D000CE15DF0589F0D8016D918D01D601ED9124
:1002E000FC910190F081E02DC6010995892B11F454
:1002F0007E0102C02196ECCFC701DF91CF911F9103
:100300000F91FF90EF90DF90CF900895FC01918DB9
:10031000828D981761F0828DDF01A80FB11D5D9667
:100320008C91928D9F5F9F73928F90E008958FEFD5
:100330009FEF0895FC01918D828D981731F0828D89
:10034000E80FF11D858D90E008958FEF9FEF0895E0
:10035000FC01918D228D892F90E0805C9F4F821B44
:1003600091098F73992708958BEC92E00E94A80160
:1003700021E0892B09F420E0822F0895FC01848D6F
:10038000DF01A80FB11DA35ABF4F2C91848D90E0BF
:1003900001968F739927848FA689B7892C93A0899A
:1003A000B1898C9180648C93938D848D981306C051
:1003B0000288F389E02D80818F7D80830895EF92FC
:1003C000FF920F931F93CF93DF93EC0181E0888F0F
:1003D0009B8D8C8D981305C0E889F989808185FDF6
:1003E00024C0F62E0B8D10E00F5F1F4F0F731127E7
:1003F000E02E8C8DE8120CC00FB607FCFACFE8890E
:10040000F989808185FFF5CFCE010E94BE01F1CF31
:100410008B8DFE01E80FF11DE35AFF4FF0820B8F29
:10042000EA89FB898081806207C0EE89FF89608349
:10043000E889F98980818064808381E090E0DF91A0
:10044000CF911F910F91FF90EF900895CF93DF937D
:10045000EC01888D8823C9F0EA89FB89808185FDBC
:1004600005C0A889B9898C9186FD0FC00FB607FC1D
:10047000F5CF808185FFF2CFA889B9898C9185FF5E
:10048000EDCFCE010E94BE01E7CFDF91CF9108955D
:1004900080E090E0892B29F00E94B40181110C9436
:1004A00000000895CF93C82F682F8BEC92E00E9434
:1004B000DF018C2FCC0F990BCF9108950E94FF166E
:1004C0000C94C11BCF92DF92EF92FF920F931F9378
:1004D0008091C202882309F440C2C090EC01D09000
:1004E000ED01E090EE01F090EF01C092E801D092B2
:1004F000E901E092EA01F092EB010E94580F60934B
:10050000EC017093ED018093EE019093EF01209147
:10051000E301222319F01092E3011FC22091C302CC
:100520003091C40237FD15C0DC01CB018C199D0947
:10053000AE09BF090091E1011091E20120E030E035
:1005400080179107A207B30720F481E08093E301AD
:1005500004C28091E4019091E5019601281B390BBA
:10056000C901C092E401D092E501E092E601F09267
:10057000E7012091C3023091C4022F3F3F4F81F524
:10058000813C22E1920708F4E8C11092E00168E2A0
:1005900070E00E94FB159B017093D5016093D4011C
:1005A000FB01EE0FFF1FE60FF71FCF016AE070E0BF
:1005B0000E94FB157093E2016093E101F093D30177
:1005C000E093D201F093D101E093D00153E0220FE8
:1005D000331F5A95E1F73093CF012093CE012EC1FE
:1005E0002091C3023091C402232BA9F42091D2019F
:1005F0003091D3012817390708F49CC11092DF010C
:100600001092DD011092D6011092D7011092D801FC
:100610001092D90113C12091C3023091C40221303C
:100620003105C9F42091D4013091D50167E0629F72
:10063000A001639F500D11248417950708F47AC117
:100640006FE0629FA001639F500D11244817590766
:1006500008F0F4C06FC12091C3023091C402243964
:1006600031050CF0EBC02091CD01220F2093CD017C
:100670004091D2015091D3014817590710F02E70C4
:100680000FC04091D0015091D10184179507B8F067
:100690004091CE015091CF014817590780F0216059
:1006A0002093CD018091C3029091C40264E070E078
:1006B0000E940F169C01019709F0C0C02BC0409109
:1006C000D4015091D50134E1349FB001359F700DB4
:1006D00011248617970708F42DC130E5349FB00127
:1006E000359F700D11246817790708F423C121FD87
:1006F00021C18091C3029091C4028339910509F40C
:10070000A7C08091C3029091C4028338910509F07B
:1007100011C19EC08091C3029091C4028A36910596
:100720003CF58091D6019091D701A091D801B0916C
:10073000D901880F991FAA1FBB1F8093D6019093E0
:10074000D701A093D801B093D9012091CD012F708A
:10075000213009F473C0243009F0ECC0816080932B
:10076000D6019093D701A093D801B093D90166C068
:100770008091C3029091C4028E3691057CF48091E1
:10078000CD018F70813039F0843009F0D3C081E021
:100790008093DA0153C01092DA0150C08091C302F5
:1007A0009091C40282379105D4F49091CD019F704D
:1007B000913049F068F0943009F0BCC03093DC010E
:1007C0002093DB013BC01092DC011092DB0136C0AC
:1007D00082E090E09093DC018093DB012FC0809158
:1007E000C3029091C402823891058CF48091DD019E
:1007F000880F8093DD019091CD019F709130F1F0D1
:10080000943009F097C081608093DD0117C080911A
:10081000C3029091C4028239910584F48091DF0172
:10082000880F8093DF019091CD019F70913031F05E
:10083000943009F07FC081608093DF018091C30212
:100840009091C40201969093C4028093C30285C024
:100850008091C3029091C4028339910519F481E01B
:100860008093DE014091D6015091D7016091D8016B
:100870007091D9018091C3019091C401A091C501EB
:10088000B091C601481759076A077B0709F055C0A0
:100890009091DD018091CA0198134FC09091DE01C3
:1008A0008091CB01981349C09091DF018091CC01D8
:1008B000981343C09091DA018091C70198133DC00D
:1008C0002091DB013091DC018091C8019091C90138
:1008D0002817390791F58091E0018F5F8093E0013F
:1008E0009091C7028917A8F18091C001811122C09F
:1008F00081E08093C001E091C502F091C602E090D2
:10090000D401F090D5010091D6011091D70120912A
:10091000D8013091D9014091DA015091DB01609109
:10092000DC017091DD018091DE019091DF0109957C
:100930001092C0018FEF9FEF86CF1092E0018CE004
:10094000E4EDF1E0A1ECB1E001900D928A95E1F7C0
:10095000C2CF1092C4021092C3021F910F91FF9058
:10096000EF90DF90CF900895EF92FF920F931F9337
:10097000CF93DF93CDB7DEB72C970FB6F894DEBFD9
:100980000FBECDBFE982FA820B831C832D833E8389
:100990004F83588769877A878B879C878AE291E0A3
:1009A0000E94550B6B817C818D819E814AE00E9463
:1009B000140B8F81882329F080E391E00E94550B6E
:1009C0000BC087E391E00E94550B6A8570E080E0E0
:1009D00090E04AE00E94140B88859985813091054A
:1009E00041F08230910541F0892B51F48EE391E082
:1009F00005C081E491E002C084E491E00E94550BBF
:100A00008B85882359F087E491E00E94550B6C8513
:100A100070E080E090E04AE00E94140B85E591E0F0
:100A20000E94550B69817A8180E090E04AE00E9443
:100A3000140B80E691E02C960FB6F894DEBF0FBE43
:100A4000CDBFDF91CF911F910F91FF90EF900C944C
:100A5000060BFB0144815581FC012481358124175B
:100A6000350778F080819181009759F0FB01608112
:100A700071816115710529F00E94141721E0892BFD
:100A800009F020E0822F08950F931F93CF93DF93F7
:100A9000EC0188819981009729F02A813B812617F2
:100AA000370788F48B016F5F7F4F0E9435160097E0
:100AB00061F0998388831B830A832C813D81232BDA
:100AC00011F4FC01108281E001C080E0DF91CF9140
:100AD0001F910F910895EF92FF920F931F93CF9361
:100AE000DF93EC017B018A01BA010E944405288151
:100AF000398181110DC02115310519F0C9010E94FC
:100B0000C11B198218821D821C821B821A8206C098
:100B10001D830C83B701C9010E940D17CE01DF911F
:100B2000CF911F910F91FF90EF900895FC0180816C
:100B300091810C94C11BFB01DC0111961C921E9249
:100B400013961C921E92129715961C921E92149741
:100B50008617970749F0608171816115710521F051
:100B6000448155810C946B050895FC01118210821B
:100B700013821282158214826115710551F0FB01F6
:100B800001900020E9F73197AF01461B570B0C94F9
:100B90006B050895BF92CF92DF92EF92FF920F9371
:100BA0001F93CF93DF937C016B01EA018901241726
:100BB000350720F48D2FE901042F182F67EA71E023
:100BC000C7010E94B505D60114968D919C91159789
:100BD000C817D907C8F58017910708F48C01D6010A
:100BE000ED91FC911197E00FF11FB08010824D91B3
:100BF0005C91BA016C0F7D1F6115710561F0FB01FD
:100C000001900020E9F73197AF01461B570BC70150
:100C10000E946B0513C0F70180819181009711F04C
:100C20000E94C11BD70111961C921E9215961C9210
:100C30001E92149713961C921E921297D601ED9154
:100C4000FC91E00FF11FB082C701DF91CF911F919E
:100C50000F91FF90EF90DF90CF90BF9008951F927B
:100C60000F920FB60F9211242F933F934F935F93E0
:100C70006F937F938F939F93AF93BF93EF93FF9364
:100C8000E0910201F09103010995FF91EF91BF916D
:100C9000AF919F918F917F916F915F914F913F9114
:100CA0002F910F900FBE0F901F9018951F920F92CB
:100CB0000FB60F9211242F933F934F935F936F932F
:100CC0007F938F939F93AF93BF93EF93FF93E091A5
:100CD0000001F09101010995FF91EF91BF91AF9152
:100CE0009F918F917F916F915F914F913F912F9144
:100CF0000F900FBE0F901F9018951F920F920FB676
:100D00000F9211242F933F934F935F936F937F9391
:100D10008F939F93AF93BF93EF93FF938BEC92E0EE
:100D20000E94BE01FF91EF91BF91AF919F918F9172
:100D30007F916F915F914F913F912F910F900FBED7
:100D40000F901F9018951F920F920FB60F921124BB
:100D50002F938F939F93EF93FF93E091DB02F0919A
:100D6000DC028081E091E102F091E20282FD12C09A
:100D700090818091E4028F5F8F732091E50282174A
:100D800051F0E091E402F0E0E553FD4F958F809340
:100D9000E40201C08081FF91EF919F918F912F918B
:100DA0000F900FBE0F901F9018958F929F92AF9249
:100DB000BF92CF92DF92EF92FF926B017C010E9473
:100DC000580F4B015C0184E0C81AD108E108F10812
:100DD000C80CD91CEA1CFB1CC814D904EA04FB0487
:100DE00038F40E94580F86169706A806B906C8F36D
:100DF0000E94580F6C157D058E059F05C8F3FF9066
:100E0000EF90DF90CF90BF90AF909F908F9008951C
:100E10001F920F920FB60F9211242F933F934F936F
:100E20005F936F937F938F939F93AF93BF93CF9372
:100E3000DF93EF93FF932091F10130E0F901E55F3B
:100E4000FD4F8491F901E95BFD4FD491F901ED5C0F
:100E5000FD4FC491CC23A1F081110E94240FEC2FEF
:100E6000F0E0EE0FFF1FE556FF4FA591B491EC9116
:100E7000ED2331E020E009F430E0832F922F02C00F
:100E800080E090E02091F5013091F6012F5F3F4F17
:100E90003093F6012093F5012091F401253618F0E6
:100EA00026E02093F0012091F0012430D9F128F4BC
:100EB000223069F02330D9F060C0253009F453C0E6
:100EC000263009F05AC021E02093C10253C0009798
:100ED00009F053C02091F5013091F6012436310517
:100EE00008F443C01092C1021092F4011DC0813079
:100EF000910509F042C0E091F40121E02E0F20930A
:100F0000F401F0E02091F5013091F601EE0FFF1FA2
:100F1000E051FE4F308727831092F6011092F501C1
:100F200024E029C00097B9F4E091F40121E02E0FEC
:100F30002093F401F0E02091F5013091F601EE0FDD
:100F4000FF1FE051FE4F308727831092F601109269
:100F5000F50123E010C02091F5013091F60125360E
:100F6000310558F007C0009741F41092F601109235
:100F7000F50103C025E02093F0012091F301222325
:100F8000B9F0892B51F48091F201882321F08091EE
:100F9000F20161E009C02D9A0BC08091F201882313
:100FA00031F08091F20160E00E94D40B01C02D98D5
:100FB000FF91EF91DF91CF91BF91AF919F918F9171
:100FC0007F916F915F914F913F912F910F900FBE45
:100FD0000F901F901895CF93DF93EC01662331F1AA
:100FE00061E08C810E94D40B8D819E810E944D0F07
:100FF00060E08C810E94D40B8D819E8125E0AC0144
:10100000249FC001259F900D11240E944D0F61E087
:101010008C810E94D40B8D819E810E944D0F60E0D7
:101020008C810E94D40B8D819E8125C061E08C81D2
:101030000E94D40B8D819E810E944D0F60E08C81B7
:101040000E94D40B8D819E810E944D0F61E08C81A6
:101050000E94D40B8D819E810E944D0F60E08C8197
:101060000E94D40B8D819E8125E0AC01249FC0019C
:10107000259F900D1124DF91CF910C944D0FCF93AC
:10108000DF93EC0161E08C810E94D40B8D819E8105
:101090000E944D0F60E08C810E94D40B8D819E8157
:1010A00028E2AC01249FC001259F900D1124DF91FF
:1010B000CF910C944D0F0F931F93CF93DF93EC01BF
:1010C00009E110E0488159816A817B81002E04C0CA
:1010D00076956795579547950A94D2F7642F617076
:1010E000CE010E94EB070150110960F7DF91CF910B
:1010F0001F910F910895CF93DF93EC0161E08C81F4
:101100000E94D40B8D819E810E944D0F60E08C81E6
:101110000E94D40B2D813E81A901569547956AE026
:10112000629FC001639F900D1124840F951FDF9172
:10113000CF910C944D0F2CB52F7D2CBD2CB5237F5A
:101140002CBD2CB52C7F2CBD2DB52E7F2DBDFC01CB
:1011500081810C94D40B8EBD00000DB407FEFDCF31
:101160008EB508951F93CF93DF93EC0160E070E09C
:101170000E949B0881EE0E94AB08182F61E070E08E
:10118000CE010E949B08812FDF91CF911F9108957E
:101190001F93CF93DF93EC0160E070E00E949B0807
:1011A00082EE0E94AB08182F61E070E0CE010E9431
:1011B0009B08812FDF91CF911F910895CF93DF93EB
:1011C000EC0160E088810E94D40BCE010E94B2083D
:1011D000CE01DF91CF910C94C808FF920F931F931B
:1011E000CF93DF931F92CDB7DEB78C01F62E60E070
:1011F00070E049830E949B088F2D8F7180620E944E
:10120000AB08F82E4981842F0E94AB0861E070E0A2
:10121000C8010E949B088F2D0F90DF91CF911F91E5
:101220000F91FF900895CF92DF92EF92FF920F936C
:101230001F93CF93DF9300D0CDB7DEB77C01062F8D
:10124000142F60E070E029835A830E949B08802F4E
:101250008F7180620E94AB08082FC12E5A81D52E53
:101260002981120F1C1531F0F60181916F010E9446
:10127000AB08F8CF61E070E0C7010E949B08802FA7
:101280000F900F90DF91CF911F910F91FF90EF90F2
:10129000DF90CF9008951F93CF93DF93EC01162F2B
:1012A00060E070E00E949B08812F8F710E94AB0864
:1012B0008FEF0E94AB08182F61E070E0CE010E9412
:1012C0009B08812FDF91CF911F9108950F931F935A
:1012D000CF93DF938C01C62FD0E0FE01EB56FF4F7A
:1012E0006491FC0144810E94ED0862E0C8010E9403
:1012F0004B09FE01E157FF4FE49141E050E001C08E
:10130000440FEA95EAF7482B62E0C801DF91CF91DC
:101310001F910F910C94ED08CF93DF93EC0160E0E7
:101320000E944B09482F436060E0CE010E94ED0807
:1013300040E767E0CE010E94ED08288539854A859F
:101340005B856C857D858E859F85A0E00E94231638
:1013500041F025E0AE01485F5F4F6AE0CE010E9498
:101360001309CE010E94C808CE010E94B20861E0B4
:1013700088810E94D40B83E092E00197F1F7DF911E
:10138000CF910895BF92CF92DF92EF92FF920F9389
:101390001F93CF93DF9300D0CDB7DEB77C01B42E7F
:1013A000C22ECB0169837A830E94A71869817A8152
:1013B000089710F080E001C089E01F928F937F931F
:1013C0006F9323E730E03F932F930E941819CB0CC3
:1013D0000F900F900F900F900F900F900BE610E072
:1013E000BC1499F0DD24D394DB0C6B2DC7010E9453
:1013F0004B091F928F931F930F930E9418190F9000
:101400000F900F900F90BD2CEBCF88E690E09F934C
:101410008F930E9418190F900F900F900F90DF91EB
:10142000CF911F910F91FF90EF90DF90CF90BF90E1
:101430000895CF92DF92EF92FF920F931F93CF9375
:10144000DF9300D0CDB7DEB77C01062F142F60E00C
:1014500070E029835A830E949B08802F8F710E941D
:10146000AB08082FC12E5A81D52E2981120F1C15C9
:1014700039F08FEF0E94AB08F60181936F01F7CF2F
:1014800061E070E0C7010E949B08802F0F900F90D1
:10149000DF91CF911F910F91FF90EF90DF90CF9050
:1014A00008955F926F927F928F929F92AF92BF92B8
:1014B000CF92DF92EF92FF920F931F93CF93DF9320
:1014C000CDB7DEB727970FB6F894DEBF0FBECDBFFE
:1014D0004C01142F022FCB016E837F830E94A7182B
:1014E0006E817F81089710F080E001C089E01F9233
:1014F0008F937F936F9387E890E09F938F930E94E1
:101500001819010F0F900F900F900F900F900F90E0
:10151000CE0101966C0183E8A82E80E0B82E9EE7EC
:10152000692E90E0792E101729F155245394510E0D
:1015300025E0A601612FC4010E94190ABF92AF9253
:101540000E941819FE0136967F010F900F90EC143F
:10155000FD0471F0F70182917F011F928F937F92BA
:101560006F920E9418190F900F900F900F90EFCF6D
:10157000152DD9CF8BE790E09F938F930E94181978
:101580000F900F9027960FB6F894DEBF0FBECDBF19
:10159000DF91CF911F910F91FF90EF90DF90CF904F
:1015A000BF90AF909F908F907F906F905F900895C5
:1015B000CF93DF93EC0186E291E0998388838A815F
:1015C0009B810E94DE088A819B81DF91CF910C94E0
:1015D000C11BCF93DF93EC010E94D80ACE01DF91AB
:1015E000CF910C94C11B0895009769F0FC01019004
:1015F0000020E9F73197AF01481B590BBC018BEC78
:1016000092E00C945B0180E090E00895CF93DF932B
:101610000E94F40AEC0185EA91E00E94F40A8C0F22
:101620009D1FDF91CF9108958F929F92AF92BF92AD
:101630000F931F93CF93DF93CDB7DEB7A1970FB66C
:10164000F894DEBF0FBECDBF19A2423008F44AE0C5
:101650008E010F5D1F4F842E912CA12CB12CA50162
:1016600094010E941F1DE62FB901CA010150110902
:10167000EA3014F4E05D01C0E95CD801EC93232B5F
:10168000242B252B61F7C8010E94F40AA1960FB6FE
:10169000F894DEBF0FBECDBFDF91CF911F910F91A8
:1016A000BF90AF909F908F9008950C94F40A209172
:1016B000B0002F7D2093B000009751F0BC0180E076
:1016C00090E0653071058105910510F00C94D50608
:1016D00008952091B00020622093B000009751F04F
:1016E000BC0180E090E0653071058105910510F046
:1016F0000C94D506089590E0FC01E95BFD4F249120
:10170000FC01ED5CFD4F8491882399F090E0880FF7
:10171000991FFC01E75DFD4FA591B491FC01E15ECD
:10172000FD4F859194918FB7F894EC91E22BEC9357
:101730008FBF08950F931F930E94B70F6093D3023A
:101740007093D4028093D5029093D602E091CB029D
:10175000F091CC020680F781E02D8BEC92E00995A8
:1017600097FF1FC00E94B70F0091D3021091D402BF
:101770002091D5023091D602DC01CB01801B910B68
:10178000A20BB30B0091CF021091D0022091D10295
:101790003091D20280179107A207B307B8F28FEFFA
:1017A0009FEF1F910F9108951F93CF93DF93282FE1
:1017B00030E0F901E55FFD4F8491F901E95BFD4FF0
:1017C000D491F901ED5CFD4FC491CC23C9F0162FE3
:1017D00081110E94240FEC2FF0E0EE0FFF1FE15E5D
:1017E000FD4FA591B4918FB7F894111105C09C914C
:1017F000ED2FE095E92302C0EC91ED2BEC938FBF28
:10180000DF91CF911F9108952F923F924F925F9257
:101810006F927F928F929F92AF92BF92CF92DF9200
:10182000EF92FF920F931F93CF93DF93CDB7DEB765
:10183000E0970FB6F894DEBF0FBECDBF7C0163EB1F
:1018400071E0CE0101960E94B505BE016F5F7F4F2A
:10185000C7010E942905182FCE0101960E94960506
:10186000112309F43DC1FE01799688E0DF011D9244
:101870008A95E9F7F701A480B580B5E0CB2ED12C8D
:101880000FEF1FEF85E0282E312C412C512C320117
:10189000D701CA14DB0408F05FC014968D919C91A7
:1018A0001597C816D90608F053C08D919C910097E2
:1018B00009F44EC0FC01EC0DFD1D8081803209F061
:1018C00047C00F3FBFEF1B0721F59601A101B701EC
:1018D000CE0101960E94CA0589819A810E94060B59
:1018E000CE0101960E9496059601A101B701CE0195
:1018F00001960E94CA0589819A810E9477182B015E
:101900003C01CE0101960E949605160100E010E010
:101910001FC04801EFEF8E1A9E0A9601A101B70180
:10192000CE0101960E94CA0589819A810E945918A8
:10193000000F111FE1E0F0E0EC0FFD1FE00FF11FC1
:10194000918F808FCE0101960E9496058401160129
:10195000FFEFCF1ADF0A9CCF14962D913C9115977B
:10196000A101B701CE0101960E94CA0589819A8121
:101970000E945918000F111FE1E0F0E0EC0FFD1F6D
:10198000E00FF11F918F808FCE0101960E94960586
:10199000298D3A8D80916A0349825A826B827C82BA
:1019A0008D833F832E839FE098870E947B0B6D8DF4
:1019B0007E8D8B8D9C8D18856230710588F5062F84
:1019C00001707C01FF2417FD20C2CE0101960E9408
:1019D0007B08CE0101960E945B0860E0CE01019673
:1019E0000E94EB07602FCE0101960E94EB07E3E017
:1019F000CE2ED12CB7010C2C02C0759567950A9498
:101A0000E2F76170CE0101960E94EB07B1E0CB1ABC
:101A1000D10880F7CE0101960E943F081150D3CF24
:101A2000AF8CB8A06C01DD24BB2417FDEEC1CE0144
:101A300001960E947B08CE0101960E945B0860E03F
:101A4000CE0101960E94EB0761E08D810E94D40BCC
:101A50008E819F810E944D0F60E08D810E94D40B8A
:101A60008E819F810E944D0F61E08D810E94D40B79
:101A70008E819F810E944D0F60E08D810E94D40B6A
:101A80008E819F810E944D0F73E0E72EF12CB601ED
:101A90000E2C02C0759567950A94E2F76170CE012D
:101AA00001960E94EB07F1E0EF1AF10880F763E07E
:101AB000E62EF12CB5010E2C02C0759567950A949F
:101AC000E2F76170CE0101960E94EB0731E0E31A64
:101AD000F10880F7CE0101960E943F081150A5CF72
:101AE00068EB71E0CE0101960E94B505BE016F5F03
:101AF0007F4FC7010E942905182FCE0101960E9431
:101B00009605112309F483C1D70114962D913C91B8
:101B100015972630310550F0ED91FC91309731F05A
:101B200085812830310508F074C101C080E090E063
:101B300001E0913309F000E055E4C52EDD24D39493
:101B4000E12CF12C8154882E880F990898AA8FA631
:101B50009E01275E3F4F3AA329A310916A03812F6C
:101B60000E947B0BFE013196DF0180E090E02FE3C5
:101B700030E020FD03C042E050E002C040E050E011
:101B80004D935D93369527958FA498A88815990550
:101B900019F042E050E002C040E050E019965C933A
:101BA0004E93189701968530910519F7011103C0DE
:101BB00082E090E002C080E090E09E8B8D8B00235D
:101BC00019F082E090E002C080E090E0988F8F8B67
:101BD00020E030E0A901A3E0B0E00E94411D219186
:101BE00031914B015C01820E931EA11CB11CA50119
:101BF0009401A9A0BAA0EA15FB0569F7D701C601AF
:101C000067E1880F991FAA1FBB1F6A95D1F7A063D0
:101C1000822B932BA42BB52B2C013D0177E17694DD
:101C20006794579447947A95D1F712014C015D015E
:101C3000E4E1B694A79497948794EA95D1F727E0C6
:101C400082229924AA24A394B12C02C0AA0CBB1C02
:101C50008A94E2F7BCA6ABA6BC01CD018F70992790
:101C60002CE030E03CA32BA31FA218A619A61AA6AD
:101C70008FA098A4A9A4BAA432E0880C991CAA1C2D
:101C8000BB1C3A95D1F723E030E040E050E00E94E1
:101C90001F1D862A972AA82AB92A8FA298A6A9A624
:101CA000BAA6B901CA012BA13CA1215031093CA31C
:101CB0002BA3232BE9F64201880C991C840C951C5C
:101CC0008FE1849DA001859D500D11245EA74DA735
:101CD000612C712C2FA138A549A55AA52BA33CA393
:101CE0004DA35EA38CE0A82EB12C8BA19CA1ADA12D
:101CF000BEA183709927AA27BB2781309105A10532
:101D0000B10571F190F00297A105B10509F044C049
:101D100061E0812F0E94D40BC1010E944D0F60E051
:101D2000812F0E94D40BC40127C061E0812F0E9443
:101D3000D40BC1010E944D0F60E0812F0E94D40B93
:101D4000C4010E944D0F61E0812F0E94D40BC1019C
:101D50000E944D0F60E0812F0E94D40BC4011AC075
:101D600061E0812F0E94D40BC4010E944D0F60E0FE
:101D7000812F0E94D40BC1010E944D0F61E0812F81
:101D80000E94D40BC4010E944D0F60E0812F0E947D
:101D9000D40BC1010E944D0F2BA13CA14DA15EA10E
:101DA00092E056954795379527959A95D1F72BA3AD
:101DB0003CA34DA35EA331E0A31AB10809F095CF6F
:101DC00061E0812F0E94D40BC1010E944D0F60E0A1
:101DD000812F0E94D40B8DA59EA50E944D0F4FEF21
:101DE000641A740AABA4BCA46A147B0408F472CF0E
:101DF0003FEFC31AD30AE30AF30A48E4C41641E0EA
:101E0000D406E104F10409F0A8CE81E004C080E02A
:101E100002C097818DCEE0960FB6F894DEBF0FBE5C
:101E2000CDBFDF91CF911F910F91FF90EF90DF9089
:101E3000CF90BF90AF909F908F907F906F905F906A
:101E40004F903F902F900895833081F028F4813097
:101E500099F08230A1F008958730A9F08830B9F068
:101E60008430D1F4809180008F7D03C08091800008
:101E70008F7780938000089584B58F7702C084B5F2
:101E80008F7D84BD08958091B0008F7703C08091CD
:101E9000B0008F7D8093B00008958230910538F0B6
:101EA000880F991F880F991F05970197F1F70895DB
:101EB0003FB7F8948091750390917603A0917703D2
:101EC000B091780326B5A89B05C02F3F19F0019665
:101ED000A11DB11D3FBFBA2FA92F982F8827820FB0
:101EE000911DA11DB11DBC01CD0142E0660F771F00
:101EF000881F991F4A95D1F708958F929F92AF92AC
:101F0000BF92CF92DF92EF92FF926B017C010E9411
:101F1000580F4B015C01C114D104E104F104F1F04C
:101F20000E94580FDC01CB0188199909AA09BB0945
:101F3000883E9340A105B10570F321E0C21AD10893
:101F4000E108F10888EE880E83E0981EA11CB11C00
:101F5000C114D104E104F10419F7DDCFFF90EF9033
:101F6000DF90CF90BF90AF909F908F9008952FB744
:101F7000F894609171037091720380917303909152
:101F800074032FBF08951F920F920FB60F92112462
:101F90002F933F938F939F93AF93BF938091710340
:101FA00090917203A0917303B09174033091700308
:101FB00023E0230F2D3720F40196A11DB11D05C08C
:101FC00026E8230F0296A11DB11D20937003809374
:101FD000710390937203A0937303B0937403809181
:101FE000750390917603A0917703B09178030196E1
:101FF000A11DB11D8093750390937603A093770381
:10200000B0937803BF91AF919F918F913F912F91A2
:102010000F900FBE0F901F9018958BE693E00C94D5
:10202000D80ACF93DF93CDB7DEB7C754D1090FB627
:10203000F894DEBF0FBECDBF789484B5826084BDB6
:1020400084B5816084BD85B5826085BD85B58160BC
:1020500085BD80916E00816080936E00109281003A
:1020600080918100826080938100809181008160F5
:1020700080938100809180008160809380008091B6
:10208000B10084608093B1008091B0008160809342
:10209000B00080917A00846080937A0080917A0009
:1020A000826080937A0080917A00816080937A00C8
:1020B00080917A00806880937A001092C100E0914C
:1020C000DB02F091DC0282E08083E091D702F091A4
:1020D000D8021082E091D902F091DA0280E1808387
:1020E0001092E302E091DF02F091E00286E080834B
:1020F000E091DD02F091DE02808180618083E091D9
:10210000DD02F091DE02808188608083E091DD0253
:10211000F091DE02808180688083E091DD02F091A1
:10212000DE0280818F7D808360E070E082E592E056
:102130000E94CD1884E691E00E94060B1092C8021E
:1021400081E08093C70224EB34E03093C6022093F1
:10215000C5022FEF3FEF3093C4022093C302809358
:10216000C20282E692E09093010180930001809187
:1021700069008C7F816080936900E89A00916D030B
:1021800010916E03D8018C910E947B0BF801818124
:102190000E947B0BFFB6F8948091C902811124C084
:1021A000EDE3F2E08491E1E5F2E09491E82FF0E0D4
:1021B000EE0FFF1FE75DFD4FA591B491EC91E92370
:1021C00021F461E08AE00E94D40B8AE00E947B0B3C
:1021D0008CB580618CBD8CB580648CBD8DE00E9417
:1021E0007B0B8BE00E947B0B8091C9028F5F8093F9
:1021F000C902FFBE60E0D8018C910E94D40B61E05F
:1022000070E0C8010E949B0865E070E080E090E00B
:102210000E947D0F4FE464E0C8010E94ED0866E073
:10222000C8010E944B09482F466066E0C8010E9421
:10223000ED0866E0C8010E944B09F8011282877D13
:102240008062F82E482F66E0C8010E94ED0866E023
:10225000C8010E944B098F1509F461C3D801129679
:102260001C9266E0C8010E944B09F8011282877D2A
:10227000F82E482F66E0C8010E94ED0866E0C8010C
:102280000E944B098F1519F0D80112961C9260E03C
:10229000C8010E944B09482F4C6060E0C8010E94B1
:1022A000ED0840E06CE1C8010E94ED0840E767E0FE
:1022B000C8010E94ED084CE465E0C8010E94ED08E9
:1022C000C8010E94C808C8010E94B20880916D032D
:1022D00090916E0324E0FC0124834FEF64E00E94A0
:1022E000ED0880916F03882311F042ED01C041EEAB
:1022F00030EF20EF90EF80EF00916D0310916E03AF
:10230000498F3A8F2B8F9C8F8D8F1E8E1F8E18A218
:1023100025E0AE01475E5F4F6AE0C8010E941309E5
:1023200025E0AE01475E5F4F60E1C8010E941309DE
:10233000D80114964C91413208F040E261E1C801A5
:102340000E94ED0880916F03882311F041EE01C0D7
:1023500042ED30EF20EF90EF80EF00916D03109190
:102360006E03498B3A8B2B8B9C8B8D8B1E8A1F8A1D
:10237000188EE6E0F2E0649125E0AE014F5E5F4F1B
:10238000C8010E94130961E0C8010E94660980919A
:102390006F038A32E1F400916D0310916E0382EDB8
:1023A000898790EF9A879B879C879D871E861F86CB
:1023B000188AE7E0F2E0649121E0AE01475F5F4FE9
:1023C000C8010E94130962E0C8010E946609809159
:1023D0006D0390916E030E948C098DE691E09F93AE
:1023E0008F930E94311700916D0310916E0360E08E
:1023F00070E0C8010E949B088FEF0E94AB08F82E86
:1024000061E070E0C8010E949B088F2D90E02F2DA5
:1024100021701F922F9395958795877099279F9389
:102420008F93F4FA882780F91F928F93F5FA882703
:1024300080F91F928F93F6FA882780F91F928F9365
:102440001F92FF9281E091E09F938F930E94181951
:1024500022E04AE068EF71E0C8010E94510A24E0DE
:102460004CE06BEE71E0C8010E94C20921E040E13E
:1024700063EE71E0C8010E94510A26E041E168ED77
:1024800071E0C8010E94C20921E041E062ED71E003
:10249000C8010E94C20921E042E068EC71E0C80175
:1024A0000E94C20921E045E062EC71E0C8010E948F
:1024B000C20921E046E069EB71E0C8010E94C2094F
:1024C00021E040E062EB71E0C8010E94C20922E015
:1024D0004CE164EA71E0C8010E94C20966E0C801EB
:1024E0000E944B0988720FB6F894DEBF0FBECDBFB5
:1024F000803241F021E090E0883009F020E0E22FC6
:10250000F92F02C0E2E0F0E0EE0FFF1FE256FE4FAF
:10251000859194919F938F938CE891E09F938F93F3
:102520000E941819D8011396EC91F0E0EE0FFF1FEE
:10253000E857FE4F859194919F938F9389E791E09F
:102540009F938F930E94181960E0C8010E944B0965
:102550000FB6F894DEBF0FBECDBF83FF05C082FD6E
:1025600006C0E1E0F0E005C0E0E0F0E002C0E2E03B
:10257000F0E0EE0FFF1FED58FE4F859194919F9371
:102580008F9380E691E09F938F930E94181966E0E5
:10259000C8010E944B0986700F900F900F900F900A
:1025A000863051F0843059F021E090E0823009F01B
:1025B00020E0E22FF92F05C0E3E0F0E002C0E2E006
:1025C000F0E0EE0FFF1FE85AFE4F859194919F9324
:1025D0008F9387E491E09F938F930E94181981E86D
:1025E00091E00E94060B0F900F900F900F909E01AC
:1025F000235C3F4F7901C901049628969FAF8EAFA7
:102600002897D7011D921D921D921C92139780E36B
:102610008DAF8BEC92E00E94A801892B09F449C18F
:1026200067EA71E0CE01C3960E94B5050E949A0B3D
:1026300097FD1EC08D309105D9F089831A820FA9AC
:1026400018AD0F5F1F4FB801CE01C3960E9444051D
:10265000882361F32BA93CA98FA998ADBE016F5FB8
:102660007F4F820F931F0E940D1718AF0FABDECF65
:10267000BE016D5C7F4FCE018D960E949B05CE0101
:102680008D960E94040C81110BC1BE016D5C7F4FC1
:10269000CE0187960E949B0565E971E08E010F5F70
:1026A0001F4FC8010E94B505B801CE0187960E9450
:1026B0002905D82EC8010E949605DD2009F434C1F1
:1026C0002BA53CA542E050E0BE01695D7F4FC801EB
:1026D0000E94CA0540E050E060E070E089819A8184
:1026E0000E94471726966CAF7DAF8EAF9FAF26979F
:1026F000C8010E94960554E0D52E3324339469E036
:10270000262E7EEDC72E1092700083E00E947B0B78
:1027100060E083E00E94D40B3092B0002092B100C0
:10272000C092B300BAE4B093B4008AE69AE00E9483
:10273000690B89E793E00E94570B8CEB91E00E94B4
:10274000690B8CEB91E00E94570B412C512C38E027
:10275000632E712C812C912C540183940CEB11E08D
:1027600026968CAD9DADAEADBFAD2697842195214B
:10277000A621B721892B8A2B8B2B39F0C8010E9407
:10278000690BC8010E94570B06C0C8010E94570B75
:10279000C8010E94690BFFEF8F1A9F0AAF0ABF0A98
:1027A000769467945794479425E182169104A10486
:1027B000B10449F0E4E08E169104A104B10471F66D
:1027C00008E713E0CDCF8091B0008F7D8093B000FB
:1027D00068E270E080E090E00E947D0FDA94D11012
:1027E00092CF5AC061E070E0C8010E949B0861E08E
:1027F000D8018C910E94D40B87E390E00197F1F708
:1028000060E0F80180810E94D40B0E94B70F2B0179
:102810003C0121E0AE014F5B5F4F68E0C8010E94C0
:10282000190A807309F42BC140E767E0C8010E94D0
:10283000ED0886FB882780F9D80115968C938823AC
:10284000A1F060E070E0C8010E949B0880E60E9451
:10285000AB088FEF0E94AB08D82E61E070E0C80192
:102860000E949B08D8011796DC9260E0C8010E9484
:102870004B09482F4D7F60E0C8010E94ED08C80158
:102880000E94B20880916D0390916E030E948C09A2
:10289000CE0181960E949605CE0187960E949605EC
:1028A000CE018D960E949605CE01C3960E94960594
:1028B00033C000916D0310916E0360E070E0C801B9
:1028C0000E949B088FEF0E94AB08D82E61E070E059
:1028D000C8010E949B08D6FE1FC040E467E0C80103
:1028E0000E94ED08D5FEDAC040E267E0C8010E9410
:1028F000ED08D4C061E070E0C6010E949B0867E16A
:10290000C6010E944B0980916F039DAD981709F491
:10291000F2C08A3209F4EFC00E94480272CE81E010
:10292000D80113968C939DCCBE016D5C7F4FCE0178
:1029300081960E949B0588E0F80111928A95E9F73B
:102940004DA15EA14830510510F048E050E069A16A
:102950007AA1C8010E942217D801F8012081222300
:10296000E1F0822F022E000C990B21361CF08755C6
:10297000910903C021340CF0C7978295807F918123
:10298000913614F0975505C0913414F0975301C057
:102990009053890F8D933296E1CF1C9219AE1AAEE7
:1029A0001BAE1CAE44E050E0B801CE01C9960E94B7
:1029B00022178BE991E00E94550BCE01C9964C017C
:1029C0008C01E091CB02F091CC020190F081E02DDE
:1029D0006FE58BEC92E00995D8016D918D01062E83
:1029E000000C770B880B990B40E10E94140B0E151D
:1029F0001F0539F785EA91E00E94F40A80916D0382
:102A000090916E030E94DE0800916D0310916E0399
:102A100060E0C8010E944B098C7F482F426060E053
:102A2000C8010E94ED0883E592E00197F1F7F801F3
:102A30008481C82E853010F094E0C92ED8011696F6
:102A40009C91911103C0D82EDC1801C0D12C60E0FC
:102A500070E0C8010E949B0880EA0E94AB08CA94FB
:102A6000FFEFCF1621F0F40181914F01F6CFDD2069
:102A700009F4B8CE80E00E94AB08DA94F8CF0E9447
:102A8000B70FDC01CB0184199509A609B709843F6A
:102A90009140A105B10508F4BCCEC6CEC0906D032F
:102AA000D0906E03F6011481012F153008F004E078
:102AB000D60116968C91811102C0101B01C010E046
:102AC00060E070E0C6010E949B0881E60E94AB08AE
:102AD00047013701015038F08FEF0E94AB08F30136
:102AE00081933F01F7CF112309F404CF8FEF0E94A8
:102AF000AB081150F8CF88EA91E00E94550BD40141
:102B00006D914D01062E000C770B880B990B40E15F
:102B10000E94140BE091CB02F091CC020190F08165
:102B2000E02D6FE58BEC92E009952896EEADFFADB8
:102B300028978E169F0619F785EA91E00E94F40AFD
:102B4000EBCECF93DF93EBECF2E01382128288EEB0
:102B500093E0A0E0B0E084839583A683B7838EE002
:102B600091E09183808385EC90E09587848784EC65
:102B700090E09787868780EC90E0918B808B81EC4A
:102B800090E0938B828B82EC90E0958B848B86EC2B
:102B900090E0978B868B118E128E138E148ECBE65F
:102BA000D3E086E291E0998388831C8280E190E003
:102BB0000E942C1BFC0189E080838AE0818381E0F4
:102BC0008283138280E284831582168210861186A6
:102BD000128613861486158616861786FB83EA836B
:102BE000E8E6F3E08EE191E09183808384E08283E4
:102BF000DF91CF910895AA1BBB1B51E107C0AA1F0B
:102C0000BB1FA617B70710F0A61BB70B881F991F8D
:102C10005A95A9F780959095BC01CD01089597FB31
:102C2000072E16F4009407D077FD09D00E94FB15FB
:102C300007FC05D03EF4909581959F4F08957095BF
:102C400061957F4F08950024A7FD00942A17300551
:102C50004005500560057005800590050895EE0F4C
:102C6000FF1F0590F491E02D0994A0E0B0E0EBE3A4
:102C7000F6E10C94501DEC01009721F4CB010E9469
:102C80002C1BB8C0FC01E60FF71F9C012250310934
:102C9000E217F30708F4ACC0D9010D911C9111970C
:102CA00006171707B0F00530110508F49FC0C801DA
:102CB00004978617970708F499C002501109061B5C
:102CC000170B019311936D937C93CF010E94C11B4D
:102CD0008DC05B01A01AB10A4C01800E911EA0911B
:102CE0008303B091840340E050E0E12CF12C109775
:102CF00009F44AC0A815B905D1F56D907C901197DB
:102D0000630182E0C80ED11CCA14DB0480F1A30168
:102D10004A195B096A0182E0C80ED11C1296BC9068
:102D200012971396AC91B5E0CB16D10440F0B28265
:102D3000A38351834083D9016D937C930AC00E5FB6
:102D40001F4FC301800F911FF90191838083EB2DE9
:102D5000FA2FE114F10431F0D7011396FC93EE93AE
:102D6000129744C0F0938403E09383033FC08D9196
:102D70009C9111974817590708F4AC017D011296F0
:102D80000D90BC91A02DB3CF8091810390918203CF
:102D900088159905E1F446175707C8F48091040196
:102DA00090910501009741F48DB79EB740910801BD
:102DB00050910901841B950BE817F907C8F4F093AB
:102DC0008203E0938103F901718360830FC0CB011B
:102DD0000E942C1B7C01009759F0A801BE010E94A3
:102DE0000417CE010E94C11BC70104C0CE0102C05E
:102DF00080E090E0CDB7DEB7EEE00C946C1D81E092
:102E000090E0F8940C94921DFB01DC0102C001904B
:102E10000D9241505040D8F70895FB01DC0101901C
:102E20000D920020E1F70895FB01DC014150504074
:102E300030F08D910190801919F40020B9F7881BAA
:102E4000990B0895FB01DC014150504048F001907E
:102E50000D920020C9F701C01D9241505040E0F78B
:102E60000895A0E0B0E0E7E3F7E10C945C1DAE014B
:102E70004B5F5F4FFA0161917191AF0180917B03CC
:102E800090917C030E943E19E2E00C94781DA6E02C
:102E9000B0E0EDE4F7E10C944C1D5C016B017A01AC
:102EA0006115710519F0DB018D939C93E114F10418
:102EB00029F0C7010297839708F0DCC03501BFEF06
:102EC0006B1A7B0AF5011081812F90E00E949E18F9
:102ED000892B11F05301F2CF1D3249F43501F2E094
:102EE0006F0E711CD50111961C9101E009C01B32B7
:102EF00031F43501B2E06B0E711CF501118100E077
:102F0000E114F10409F4C4C0F0E1EF16F10489F40E
:102F1000103399F5D3018C918F7D883509F0B2C0BB
:102F200011961C91B2E06B0E711C026050E1E52E0F
:102F3000F12CEAE0EE16F10409F4B0C0F0E1EF166E
:102F4000F104D9F028E0E216F10451F438E0E32E60
:102F5000F12C88248A94982CA82C4FE1B42E13C00D
:102F60006FEF7FEFCB0197010F2C000C440B550B3B
:102F70000E941F1D49015A0106C088248A94982C7A
:102F8000A82C2FE0B22E7E826D8260E020E030E03F
:102F9000A90127010F2C000C660877082D803E80C0
:102FA000E0EDE10FEA3060F08FEB810F8A3110F431
:102FB000E9EC05C08FE9810F8A3190F5E9EAE10F6C
:102FC0008E2F90E08E159F055CF56F3F09F18216FC
:102FD0009306A406B506D8F0C301B2010E940F1DE6
:102FE0002E2F30E040E050E029833A834B835C830E
:102FF000260F371F481F591F89819A81AB81BC81D9
:10300000281739074A075B0710F061E001C06FEF2E
:10301000ED81FE813196FE83ED83D1011C91BECFFF
:10302000C114D10489F0662339F08D819E81019706
:10303000F6019183808308C001FF06C08D819E81C7
:103040000297D6018D939C9300FF07C05095409541
:10305000309521953F4F4F4F5F4F67FF10C082E281
:1030600090E09093800380937F036FEF7FEF8FEF6B
:103070009FEF1BC060E070E080E090E016C0B901F7
:10308000CA0113C010E3E114F10409F45FCF51CF7A
:10309000103309F43FCF9AE0E92EF12C89E9882E0C
:1030A000982CA82C89E1B82E6ECF2696E2E10C94DC
:1030B000681DFC0188279927E89421912032E9F3C3
:1030C000293010F02E30C8F32B3241F02D3239F474
:1030D000689404C00E94C518820F911D219120534D
:1030E0002A30C0F31EF4909581959F4F08951F9349
:1030F000FC0199278827BC01E89411911032E9F36B
:10310000193010F01E30C8F31B3251F01D3249F453
:10311000689406C00E94B018610F711D811D911D39
:10312000119110531A30B0F33EF49095809570953C
:1031300061957F4F8F4F9F4F1F91089591110C9470
:10314000591C803219F089508550C8F70895FC0148
:1031500005900020E9F7809590958E0F9F1F0895A8
:10316000592F482F372F262F660F771F881F991F3B
:10317000660F771F881F991F620F731F841F951F8B
:10318000660F771F881F991F08957AE0979F902DEB
:10319000879F802D910D112408950F931F93CF9336
:1031A000DF93009731F46115710519F480E090E028
:1031B0003AC08B01EC016EE070E081E090E00E948B
:1031C000101BFC01892B91F380E883830115110505
:1031D00071F01387028781E883838091790390914E
:1031E0007A03892B21F4F0937A03E09379032097F3
:1031F000C9F0D187C08783818260838380917B03FC
:1032000090917C03892B71F4F0937C03E0937B0312
:1032100080917D0390917E03892B21F4F0937E03AE
:10322000E0937D03CF01DF91CF911F910F9108951E
:10323000A0E0B0E0EEE1F9E10C945A1DAE01495F67
:103240005F4FDA016D917D91AD0109E713E0F8015F
:1032500082819381DC0113962C9113972860139639
:103260002C930E943E19D8011296ED91FC91139770
:103270002381277F2383E4E00C94761DACE0B0E04B
:10328000E4E4F9E10C944C1D7C016B018A01FC0122
:1032900017821682838181FFBDC1CE0101964C0148
:1032A000F7019381F60193FD859193FF81916F0161
:1032B000882309F4ABC1853239F493FD859193FFDE
:1032C00081916F01853229F4B70190E00E94791C49
:1032D000E7CF512C312C20E02032A0F48B3269F062
:1032E00030F4803259F0833269F420612CC08D3281
:1032F00039F0803339F4216026C02260246023C075
:10330000286021C027FD27C030ED380F3A3078F40F
:1033100026FF06C0FAE05F9E300D1124532E13C025
:103320008AE0389E300D1124332E20620CC08E327C
:1033300021F426FD6BC1206406C08C3611F4206890
:1033400002C0883641F4F60193FD859193FF819187
:103350006F018111C1CF982F9F7D9554933028F430
:103360000C5F1F4FFFE3F9830DC0833631F08337C5
:1033700071F0833509F05BC022C0F8018081898338
:103380000E5F1F4F44244394512C540115C0380143
:10339000F2E06F0E711CF801A080B18026FF03C01F
:1033A000652D70E002C06FEF7FEFC5012C870E9492
:1033B0006E1C2C0183012C852F77222E17C038011B
:1033C000F2E06F0E711CF801A080B18026FF03C0EF
:1033D000652D70E002C06FEF7FEFC5012C870E9462
:1033E0005C1C2C012C852068222E830123FC1BC031
:1033F000832D90E048165906B0F4B70180E290E0C2
:103400000E94791C3A94F4CFF50127FC859127FEA0
:1034100081915F01B70190E00E94791C31103A94CC
:10342000F1E04F1A51084114510471F7E5C0843698
:1034300011F0893639F5F80127FF07C060817181E5
:10344000828193810C5F1F4F08C060817181072EBC
:10345000000C880B990B0E5F1F4F2F76722E97FF73
:1034600009C090958095709561957F4F8F4F9F4FC4
:103470002068722E2AE030E0A4010E94B11CA82E20
:10348000A81844C0853729F42F7EB22E2AE030E0F8
:1034900025C0F22FF97FBF2E8F36C1F018F4883582
:1034A00079F0B4C0803719F0883721F0AFC02F2FE2
:1034B0002061B22EB4FE0DC08B2D8460B82E09C0E1
:1034C00024FF0AC09F2F9660B92E06C028E030E086
:1034D00005C020E130E002C020E132E0F801B7FE93
:1034E00007C060817181828193810C5F1F4F06C08C
:1034F0006081718180E090E00E5F1F4FA4010E9407
:10350000B11CA82EA818FB2DFF777F2E76FE0BC0CE
:10351000372D3E7FA51450F474FE0AC072FC08C01B
:10352000372D3E7E05C0BA2C372D03C0BA2C01C002
:10353000B52C34FF0DC0FE01EA0DF11D80818033F2
:1035400011F4397E09C032FF06C0B394B39404C0AD
:10355000832F867809F0B39433FD13C030FF06C083
:103560005A2CB31418F4530C5B18B32CB31468F42E
:10357000B70180E290E03C870E94791CB3943C85BF
:10358000F5CFB31410F43B1801C0312C34FF12C036
:10359000B70180E390E03C870E94791C3C8532FFB4
:1035A00017C031FD03C088E790E002C088E590E0D5
:1035B000B7010CC0832F867859F031FF02C08BE22F
:1035C00001C080E237FD8DE2B70190E00E94791CD6
:1035D000A51438F4B70180E390E00E94791C5A9456
:1035E000F7CFAA94F401EA0DF11D8081B70190E0B4
:1035F0000E94791CA110F5CF332009F451CEB701F8
:1036000080E290E00E94791C3A94F6CFF70186811F
:10361000978102C08FEF9FEF2C96E2E10C94681D1A
:103620000F931F93CF93DF93869F8001879F100D89
:10363000969F100D1124C8010E942C1BEC010097CD
:1036400029F0A80160E070E00E94671CCE01DF91C4
:10365000CF911F910F910895CF93DF938230910501
:1036600010F482E090E0E0918303F091840320E085
:1036700030E0C0E0D0E0309711F14081518148172F
:103680005907C0F04817590761F482819381209748
:1036900019F09B838A832BC09093840380938303C8
:1036A00026C02115310519F04217530718F49A0165
:1036B000BE01DF01EF010280F381E02DDCCF211597
:1036C000310509F1281B390B2430310590F412968D
:1036D0008D919C9113976115710521F0FB019383E6
:1036E000828304C09093840380938303FD01329608
:1036F00044C0FD01E20FF31F8193919322503109E1
:103700002D933C933AC02091810330918203232B67
:1037100041F42091060130910701309382032093F8
:10372000810320910401309105012115310541F4F7
:103730002DB73EB74091080150910901241B350B6C
:10374000E0918103F0918203E217F307A0F42E1BAE
:103750003F0B2817390778F0AC014E5F5F4F2417F5
:10376000350748F04E0F5F1F50938203409381034B
:103770008193919302C0E0E0F0E0CF01DF91CF911F
:1037800008950F931F93CF93DF93009709F48CC094
:10379000FC013297138212820091830310918403FB
:1037A0000115110581F420813181820F931F209131
:1037B0008103309182032817390779F5F09382034A
:1037C000E093810371C0D80140E050E0AE17BF071D
:1037D00050F412962D913C911397AD0121153105AE
:1037E00009F1D901F3CF9D01DA013383228360818E
:1037F0007181860F971F8217930769F4EC01288166
:103800003981260F371F2E5F3F4F318320838A81F6
:103810009B8193838283452B29F4F0938403E09367
:10382000830342C01396FC93EE931297ED014991E6
:1038300059919E01240F351FE217F30771F480811F
:103840009181840F951F029611969C938E9382818D
:10385000938113969C938E931297E0E0F0E0D80149
:1038600012968D919C911397009719F0F8018C0195
:10387000F6CF8D919C9198012E5F3F4F820F931F41
:1038800020918103309182032817390769F430971A
:1038900029F4109284031092830302C013821282CF
:1038A0001093820300938103DF91CF911F910F91B9
:1038B0000895992788270895FC010590615070406C
:1038C0000110D8F7809590958E0F9F1F0895DC0109
:1038D00001C06D9341505040E0F70895FC016150E4
:1038E000704001900110D8F7809590958E0F9F1F22
:1038F00008950F931F93CF93DF93FB01238121FD45
:1039000003C08FEF9FEF28C022FF16C0468157816A
:10391000248135814217530744F4A081B1819D0170
:103920002F5F3F4F318320838C93268137812F5F18
:103930003F4F3783268310C0EB01092F182F0084D7
:10394000F185E02D0995892BE1F68E819F81019605
:103950009F838E83812F902FDF91CF911F910F91A5
:103960000895FA01AA27283051F1203181F1E89415
:103970006F936E7F6E5F7F4F8F4F9F4FAF4FB1E062
:103980003ED0B4E03CD0670F781F891F9A1FA11D5D
:10399000680F791F8A1F911DA11D6A0F711D811D5E
:1039A000911DA11D20D009F468943F912AE0269F23
:1039B00011243019305D3193DEF6CF010895462F82
:1039C0004770405D4193B3E00FD0C9F7F6CF462F63
:1039D0004F70405D4A3318F0495D31FD40524193CC
:1039E00002D0A9F7EACFB4E0A69597958795779589
:1039F0006795BA95C9F700976105710508959B0110
:103A0000AC010A2E06945795479537952795BA9598
:103A1000C9F7620F731F841F951FA01D0895DB0156
:103A20008F939F930E94411DBF91AF91A29F800DE4
:103A3000911DA39F900DB29F900D11240895A1E2B6
:103A40001A2EAA1BBB1BFD010DC0AA1FBB1FEE1F18
:103A5000FF1FA217B307E407F50720F0A21BB30B63
:103A6000E40BF50B661F771F881F991F1A9469F7DF
:103A700060957095809590959B01AC01BD01CF013B
:103A800008950E94831DA59F900DB49F900DA49F43
:103A9000800D911D112408952F923F924F925F92B5
:103AA0006F927F928F929F92AF92BF92CF92DF924E
:103AB000EF92FF920F931F93CF93DF93CDB7DEB7B3
:103AC000CA1BDB0B0FB6F894DEBF0FBECDBF099447
:103AD0002A88398848885F846E847D848C849B849E
:103AE000AA84B984C884DF80EE80FD800C811B81AC
:103AF000AA81B981CE0FD11D0FB6F894DEBF0FBEDB
:103B0000CDBFED010895A29FB001B39FC001A39F57
:103B1000700D811D1124911DB29F700D811D112406
:103B2000911D089511E0CFE2D1E004C0FE010E9492
:0E3B30002F162196C033D107C9F7F894FFCFA6
:103B3E005A015A0100008503800000000000DF01D9
:103B4E005B01A80186019A01260200000000F30A1B
:103B5E00600200000000D80AE90A41646472200085
:103B6E002067726F75700020756E697420002030AA
:103B7E00002031002032002C2064696D206C6576A7
:103B8E00656C3A20002C20706572696F643A2000D3
:103B9E0075732E007374617274696E670044756D6F
:103BAE0070696E6720726164696F20646174613A36
:103BBE0000496E697469616C697A65642067617425
:103BCE00657761790054562030780053656E6469CC
:103BDE006E673A20000D0A0052656365697665646A
:0E3BEE003A20006B616B7500656C726F000011
:00000001FF
