:100000000C9462000C948A000C948A000C948A0070
:100010000C948A000C948A000C948A000C94370289
:100020000C948A000C948A000C948A000C948A0028
:100030000C948A000C948A000C948A000C948A0018
:100040000C9416050C948A000C94D2010C94AC010B
:100050000C948A000C948A000C948A000C948A00F8
:100060000C948A000C948A000000000023002600F3
:10007000290000000008000201000003040700003E
:1000800000000000000000000000250028002B00F8
:1000900000000000240027002A00040404040404D3
:1000A0000404020202020202030303030303010227
:1000B00004081020408001020408102001020408F6
:1000C0001020590D11241FBECFEFD8E0DEBFCDBFE9
:1000D00011E0A0E0B1E0E0E6F7E202C005900D9289
:1000E000A034B107D9F722E0A0E4B1E001C01D922D
:1000F000A03CB207E1F710E0C2E6D0E004C02197CF
:10010000FE010E94C20DC136D107C9F70E946005E9
:100110000C94AE130C940000CF92DF92EF92FF92FA
:100120000F931F93CF93DF936C017A018B01C0E093
:10013000D0E0CE15DF0589F0D8016D918D01D60193
:10014000ED91FC910190F081E02DC6010995892B7C
:1001500011F47E0102C02196ECCFC701DF91CF914F
:100160001F910F91FF90EF90DF90CF900895FC01C9
:10017000918D828D981761F0828DDF01A80FB11DDE
:100180005D968C91928D9F5F9F73928F90E0089502
:100190008FEF9FEF0895FC01918D828D981731F0BC
:1001A000828DE80FF11D858D90E008958FEF9FEF10
:1001B0000895FC01918D228D892F90E0805C9F4FE6
:1001C000821B91098F739927089581E491E00E9421
:1001D000D90021E0892B09F420E0822F0895FC0149
:1001E000848DDF01A80FB11DA35ABF4F2C91848DC0
:1001F00090E001968F739927848FA689B7892C93F5
:10020000A089B1898C9180648C93938D848D98138F
:1002100006C00288F389E02D80818F7D8083089558
:10022000EF92FF920F931F93CF93DF93EC0181E046
:10023000888F9B8D8C8D981305C0E889F989808102
:1002400085FD24C0F62E0B8D10E00F5F1F4F0F733E
:100250001127E02E8C8DE8120CC00FB607FCFACFE8
:10026000E889F989808185FFF5CFCE010E94EF00F2
:10027000F1CF8B8DFE01E80FF11DE35AFF4FF082A5
:100280000B8FEA89FB898081806207C0EE89FF8934
:100290006083E889F98980818064808381E090E0CF
:1002A000DF91CF911F910F91FF90EF900895CF9321
:1002B000DF93EC01888D8823C9F0EA89FB8980816E
:1002C00085FD05C0A889B9898C9186FD0FC00FB640
:1002D00007FCF5CF808185FFF2CFA889B9898C9181
:1002E00085FFEDCFCE010E94EF00E7CFDF91CF91E8
:1002F000089580E090E0892B29F00E94E5008111AB
:100300000C94000008950E94D4100F931F93CF9374
:10031000DF93EC0188819981009729F02A813B8144
:100320002617370788F48B016F5F7F4F0E940A10F2
:10033000009761F0998388831B830A832C813D8118
:10034000232B11F4FC01108281E001C080E0DF91D9
:10035000CF911F910F9108951F920F920FB60F9298
:1003600011242F933F934F935F936F937F938F93BA
:100370009F93AF93BF93EF93FF9381E491E00E942B
:10038000EF00FF91EF91BF91AF919F918F917F917E
:100390006F915F914F913F912F910F900FBE0F90F2
:1003A0001F9018951F920F920FB60F9211242F9342
:1003B0008F939F93EF93FF93E0915101F09152013E
:1003C0008081E0915701F091580182FD12C0908127
:1003D00080915A018F5F8F7320915B01821751F0DA
:1003E000E0915A01F0E0EF5BFE4F958F80935A0148
:1003F00001C08081FF91EF919F918F912F910F907C
:100400000FBE0F901F9018958F929F92AF92BF9240
:10041000CF92DF92EF92FF926B017C010E94F10478
:100420004B015C0184E0C81AD108E108F108C80C4E
:10043000D91CEA1CFB1CC814D904EA04FB0438F4D8
:100440000E94F10486169706A806B906C8F30E9412
:10045000F1046C157D058E059F05C8F3FF90EF90A4
:10046000DF90CF90BF90AF909F908F9008951F9294
:100470000F920FB60F9211242F933F934F935F93D8
:100480006F937F938F939F93AF93BF93CF93DF939C
:10049000EF93FF932091DF0130E0F901EE58FF4F19
:1004A0008491F901E255FF4FD491F901E656FF4FCF
:1004B000C491CC23A1F081110E949804EC2FF0E0AC
:1004C000EE0FFF1FE859FF4FA591B491EC91ED237A
:1004D00031E020E009F430E0832F922F02C080E069
:1004E00090E02091E3013091E4012F5F3F4F309382
:1004F000E4012093E3012091E201253618F026E083
:100500002093DE012091DE012430D9F128F422303D
:1005100069F02330D9F060C0253009F453C026308B
:1005200009F05AC021E02093AF0253C0009709F0B0
:1005300053C02091E3013091E4012436310508F4E1
:1005400043C01092AF021092E2011DC081309105AC
:1005500009F042C0E091E20121E02E0F2093E20178
:10056000F0E02091E3013091E401EE0FFF1FE25231
:10057000FE4F308727831092E4011092E30124E0BC
:1005800029C00097B9F4E091E20121E02E0F2093F9
:10059000E201F0E02091E3013091E401EE0FFF1F52
:1005A000E252FE4F308727831092E4011092E3015C
:1005B00023E010C02091E3013091E401253631059C
:1005C00058F007C0009741F41092E4011092E30143
:1005D00003C025E02093DE012091E1012223B9F040
:1005E000892B51F48091E001882321F08091E00172
:1005F00061E009C02D9A0BC08091E001882331F0A1
:100600008091E00160E00E94C10401C02D98FF913B
:10061000EF91DF91CF91BF91AF919F918F917F919A
:100620006F915F914F913F912F910F900FBE0F905F
:100630001F901895CF92DF92EF92FF92CF93DF93A6
:10064000EC01072E000C880B990B0E940E126B0117
:100650007C0120E030E040E45FE30E946D1220E086
:1006600030E048E452E40E94350E0E94A70EC617FF
:10067000D707D4F020E030E040EA5FE3C701B601DD
:100680000E946D1220E030E048E452E40E94350EF2
:1006900020E030E040E85FE30E94C90D0E94A70E11
:1006A00021E06C177D070CF420E0822F90E0DF91B1
:1006B000CF91FF90EF90DF90CF9008952FB7F894EF
:1006C0008091B6029091B702A091B802B091B902A0
:1006D0002FBF8093490190934A01A0934B01B0939F
:1006E0004C01E0914101F09142010680F781E02D3B
:1006F00081E491E0099597FF26C02FB7F894809187
:10070000B6029091B702A091B802B091B9022FBF82
:100710004091490150914A0160914B0170914C0107
:10072000841B950BA60BB70B4091450150914601D8
:10073000609147017091480184179507A607B70794
:1007400080F28FEF9FEF08952091B0002F7D2093CE
:10075000B000009751F0BC0180E090E06530710579
:100760008105910510F00C94040208952091B000C9
:1007700020622093B000009751F0BC0180E090E02F
:10078000653071058105910510F00C9404020895FF
:10079000009769F0FC0101900020E9F73197AF0163
:1007A000481B590BBC0181E491E00C948C0080E063
:1007B00090E00895CF93DF930E94C803EC0181E39A
:1007C00091E00E94C8038C0F9D1FDF91CF91089587
:1007D000CF93DF93F89482E08093B0008093B100D0
:1007E00094E69093B3001092B200809370007894D6
:1007F0008093DE011092E2018091DF0190E0FC0124
:10080000E255FF4F2491FC01E656FF4F8491882367
:10081000C1F090E0880F991FFC01E057FF4FC59190
:10082000D491FC01EA57FF4FA591B4919FB7F8947A
:100830008881E22FE0958E2388838C91E823EC93C6
:100840009FBFDF91CF9108958F929F92AF92BF92F9
:10085000CF92DF92EF92FF920F931F93CF93DF938C
:10086000DB01CD91DC91DC011C96ED91FC911D9793
:10087000CE17DF070CF04AC0FE01EE0FFF1F1A96DD
:100880008D919C911B97E80FF91F80809180C1701A
:10089000DD27B1E0CB27209719F404E610E002C071
:1008A0000CE91FEF79015A016B01020F131FB80108
:1008B000C4010E941A03892B99F40E0D1F1DB80163
:1008C000C4010E941A03892B71F4B8016E0D7F1DBB
:1008D000C4010E941A03892BE1F023E030E005C037
:1008E00021E030E002C022E030E0F501808191811A
:1008F00001968217930734F011821082F6018081ED
:100900009181019691838083CE0105C081E090E0C2
:1009100002C08FEF9FEFDF91CF911F910F91FF905A
:10092000EF90DF90CF90BF90AF909F908F90089501
:10093000833081F028F4813099F08230A1F008955D
:100940008730A9F08830B9F08430D1F480918000EC
:100950008F7D03C0809180008F7780938000089501
:1009600084B58F7702C084B58F7D84BD0895809152
:10097000B0008F7703C08091B0008F7D8093B0006E
:1009800008951F93CF93DF93282F30E0F901EE589D
:10099000FF4F8491F901E255FF4FD491F901E656DA
:1009A000FF4FC491CC23C9F0162F81110E949804E7
:1009B000EC2FF0E0EE0FFF1FEA57FF4FA591B49127
:1009C0008FB7F894111105C09C91ED2FE095E923A4
:1009D00002C0EC91ED2BEC938FBFDF91CF911F9173
:1009E00008953FB7F8948091B2029091B302A0911C
:1009F000B402B091B50226B5A89B05C02F3F19F0EF
:100A00000196A11DB11D3FBFBA2FA92F982F88278E
:100A1000820F911DA11DB11DBC01CD0142E0660FE9
:100A2000771F881F991F4A95D1F708951F920F923B
:100A30000FB60F9211242F933F938F939F93AF93F1
:100A4000BF938091B6029091B702A091B802B09185
:100A5000B9023091B10223E0230F2D3720F4019623
:100A6000A11DB11D05C026E8230F0296A11DB11DD1
:100A70002093B1028093B6029093B702A093B8027C
:100A8000B093B9028091B2029091B302A091B402E6
:100A9000B091B5020196A11DB11D8093B202909351
:100AA000B302A093B402B093B502BF91AF919F91EE
:100AB0008F913F912F910F900FBE0F901F9018951F
:100AC000CF93DF93CDB7DEB7E5970FB6F894DEBFCF
:100AD0000FBECDBF789484B5826084BD84B581603B
:100AE00084BD85B5826085BD85B5816085BD8091F9
:100AF0006E00816080936E00109281008091810071
:100B00008260809381008091810081608093810068
:100B1000809180008160809380008091B10084602A
:100B20008093B1008091B00081608093B00080918B
:100B30007A00846080937A0080917A00826080934A
:100B40007A0080917A00816080937A0080917A00A7
:100B5000806880937A001092C100E0915101F09179
:100B6000520182E08083E0914D01F0914E011082AC
:100B7000E0914F01F091500180E180831092590182
:100B8000E0915501F091560186E08083E091530198
:100B9000F0915401808180618083E0915301F09154
:100BA0005401808188608083E0915301F091540169
:100BB000808180688083E0915301F09154018081AD
:100BC0008F7D808386E191E00E94DA030E94E80332
:100BD0008EE191E00E94DA0385EE91E09DA78CA75B
:100BE0008091E20190E09FA78EA78091AF0290E0F4
:100BF00099AB88AB8091DE01853009F04DC28091C0
:100C0000E7019091E801885891098D35910588F4A4
:100C10008091E201843041F48091E9019091EA01F0
:100C20008097479708F45EC38091E201843408F00E
:100C300040C38091E2018A3108F446C08091E50109
:100C40009091E601843F914050F41BA61AA68FEFC5
:100C50009FEFDC018EA39FA3A8A7B9A74FC08091E7
:100C6000E7019091E80185974B9770F5EBEEF1E085
:100C700082E090E040E050E0BA018C010F5F1F4F2E
:100C80002091E20130E0021713076CF49F0122501B
:100C90003109D9012D913C91275031092730310577
:100CA00008F45AC3C8010197959587959BA78AA711
:100CB0000C971CF41BA61AA607C04EA35FA368A737
:100CC00079A784E090E02AC48091E2018A3108F497
:100CD00045C08091E5019091E6018032934008F48F
:100CE000B4CF8091E7019091E801C697869708F408
:100CF0004FC334C04EA35FA368A779A78BE090E0F1
:100D00000DC420813181255231092B31310508F084
:100D10004FC3440F551F661F771F416002963496DC
:100D20008C010F5F1F4F2091E20130E00217130783
:100D300064F49F0122503109D9012D913C912C502E
:100D400031092B303105E8F2C80101979595879557
:100D50009BA78AA70C9774F61BA61AA68091E2019E
:100D60008232A8F18091E7019091E80106970797F8
:100D700070F5EBEEF1E082E090E0C12CD12C760131
:100D80009C012F5F3F4F4091E20150E0241735074F
:100D90006CF4DF0112974D915C9111974E515109FE
:100DA0004731510508F428C310C3C901019795952F
:100DB00087959BA78AA740971CF41BA61AA607C075
:100DC000CEA2DFA2E8A6F9A68CE090E0A7C31BAAFA
:100DD0001AAA81E090E09A8389838091E2018D30A4
:100DE00008F474C029E733E0AE014E5C5F4FBE01EA
:100DF0006F5F7F4FCE0182960E942404892B09F0F9
:100E000065C029E733E0AE014E5C5F4FBE016F5F06
:100E10007F4FCE0182960E942404019709F056C0AC
:100E200029E733E0AE014E5C5F4FBE016F5F7F4F3D
:100E3000CE0182960E942404892B09F047C0812CA0
:100E4000912C540100E010E08091E20190E02981B2
:100E50003A81281739078CF529E733E0AE014E5C5B
:100E60005F4FBE016F5F7F4FCE0182960E942404C8
:100E70007C0129E733E0AE014E5C5F4FBE016F5F3E
:100E80007F4FCE0182960E942404B1E0EB16F1045C
:100E900049F4892BD9F4880C991CAA1CBB1C6894B2
:100EA00080F808C0EF2891F4019781F4880C991C10
:100EB000AA1CBB1C0F5F1F4FC7CF1BA70AA78EA280
:100EC0009FA2A8A6B9A681E090E028C31BAA1AAAEF
:100ED00081E090E09A8389838EA59FA51816190654
:100EE0000CF060C0ECA5FDA582E090E09A838983B8
:100EF0008281938189974E9708F054C083E090E0F7
:100F00009A838983848195810B970A9708F04AC058
:100F10002CEB31E0AE014E5C5F4FBE016F5F7F4F47
:100F2000CE0182960E942404892BE1F52CEB31E05E
:100F3000AE014E5C5F4FBE016F5F7F4FCE01829668
:100F40000E942404019771F5812C912C540100E03A
:100F500010E029813A818EA59FA5281739070CF04A
:100F60008EC22CEB31E0AE014E5C5F4FBE016F5F75
:100F70007F4FCE0182960E9424046C01033011053C
:100F800009F041C22CEB31E0AE014E5C5F4FBE0177
:100F90006F5F7F4FCE0182960E942404C816D90647
:100FA00009F431C2ECA5FDA582819381C69786978D
:100FB00008F0B9C2848195814B97459708F0B3C278
:100FC000DF0116967F0186ECE80EF11C20E030E090
:100FD00040E050E060E070E080E090E00D911C9116
:100FE0001197095011090830110508F09CC212969A
:100FF0000D911C911397015111090D30110508F045
:1010000047C201E00E948B0D21601496AE15BF050A
:1010100029F72EA33FA348A759A700E20E94A60DD7
:101020002CA33DA385E090E09BA38AA380E390E0FE
:101030009BA78AA78DE391E00E94C8030EA11FA180
:1010400028A539A519A2CE018196B901A8014F7032
:10105000552766277727E4E0369527951795079556
:10106000EA95D1F701974A3051056105710508F0FD
:1010700058C2405DDC014C93011511052105310575
:1010800021F70E94C80381E391E00E94C80382E037
:101090008093DE011092E20181E491E00E94D90088
:1010A000892B09F403C11A8219821C821B821E82B9
:1010B0001D8260E070E0CE0101960E9485012981C9
:1010C0003A8181110DC02115310519F0C9010E9425
:1010D000720F1A8219821E821D821C821B8222C0FC
:1010E0001E821D8263E371E0C9010E94E2101AC0F2
:1010F0008AAB1BAA0D811E810F5F1F4FB801CE0165
:1011000001960E948501882369F029813A818D81A9
:101110009E81BE016E5C7F4F820F931F0E94E21082
:101120001E830D830E945E0397FFE2CF40E050E0F4
:1011300060E070E089819A810E94E9104B015C01B6
:1011400024E02CABB1EB2B2EB0E03B2E10927000C4
:10115000F1014491EDE9F0E08491882399F090E069
:10116000880F991FFC01E057FF4FA591B491FC0136
:10117000EA57FF4F259134918FB7F8949C91492BF2
:101180004C938FBF60E083E00E94C104F1E0F093D4
:10119000B00029E02093B1008EED8093B3009AE473
:1011A0009093B4008AE69AE00E94B60389E793E040
:1011B0000E94A4038CEB91E00E94B6038CEB91E0BB
:1011C0000E94A403C12CD12C7601C394412C512C34
:1011D000F8E06F2E712C0CEB11E0D301C2018821D5
:1011E0009921AA21BB21892B8A2B8B2B39F0C8018D
:1011F0000E94B603C8010E94A40306C0C8010E9451
:10120000A403C8010E94B603BFEFCB1ADB0AEB0AA6
:10121000FB0A7694679457944794E5E1CE16D1047F
:10122000E104F10449F0A4E0CA16D104E104F10498
:1012300091F608E713E0D1CF8091B0008F7D8093C5
:10124000B0000E94F1046B017C0168E2462E512C33
:10125000612C712C0E94F104DC01CB018C199D09D9
:10126000AE09BF09883E9340A105B10558F0F1E0F1
:101270004F1A51086108710828EEC20E23E0D21EF1
:10128000E11CF11C411451046104710419F72CA9EB
:1012900021502CAB21115ACF84E391E00E94DA0354
:1012A0000E94E80389819A810E94720F0E9479014D
:1012B00093CC8091E9019091EA01825491098E9733
:1012C00008F0B7CC20E030E080E090E0DC01F901EC
:1012D000E551FE4F40815181495051094930510536
:1012E00078F0A7CC8091EB019091EC0109970997D8
:1012F00008F09ACC1BA61AA68FEF9FEFDC0118C04E
:10130000F901E351FE4F408151814751510942316A
:101310005105A8F4880F991FAA1FBB1F81602C5F7D
:101320003F4F2038310599F620E230E03BA72AA74D
:101330008EA39FA3A8A7B9A783E090E0EFC0408148
:101340005181465051094730510508F072CC880F41
:10135000991FAA1FBB1FE3CF20813181235131097F
:101360002F30310578F0208131812A503109293020
:10137000310508F0A9CC440F551F661F771F029650
:1013800034967BCC440F551F661F771F4160F7CF03
:101390008091E9019091EA01C697869708F0DECC2A
:1013A000EDEEF1E083E090E040E050E0BA01B8CC2F
:1013B000208131812C5031092A30310508F0CECC02
:1013C000440F551F661F771FA9CC4D915C914C505F
:1013D00051094B30510508F0FACCCC0CDD1CEE1C49
:1013E000FF1C4081518134964350510945305105CD
:1013F00008F0DBCC0296C4CCCC0CDD1CEE1CFF1C30
:101400006894C0F8EECF2CEB31E0AE014E5C5F4F3C
:10141000BE016F5F7F4FCE0182960E9424047C0143
:101420000330110581F42CEB31E0AE014E5C5F4FCF
:10143000BE016F5F7F4FCE0182960E942404E816A2
:10144000F90609F0AFCDC114D10459F4EA94EF289C
:1014500009F0A8CD880C991CAA1CBB1C689480F8C4
:101460000BC0CA94CD2809F09DCDEF2809F09ACD84
:10147000880C991CAA1CBB1C0F5F1F4F6ACD1BA7B1
:101480000AA78EA29FA2A8A6B9A682E090E046C0B5
:1014900012960D911C9113970450110905301105F6
:1014A00008F041C001E00E948B0DAFCD98012250A1
:1014B0003109D9012D913C9129503109283031054C
:1014C00008F0DFC0BC016F5F7F4FD8012D913C91C8
:1014D000275031092730310508F0A4C2440F551FA9
:1014E000416002960C5F1F4F2091E20130E02450D2
:1014F000310982179307D4F20197959587959BA799
:101500008AA78A970CF4BDC0052E000C660B770BDA
:101510004EA35FA368A779A789E090E09BA38AA365
:1015200089CD495CA7CD8091E201893370F1828138
:101530009381895791098335910508F438C125C0F5
:10154000D90112966D917C911397665171096131A1
:10155000710508F052C1D701C601880F991FAA1F53
:10156000BB1F6C017D016894C0F84E5F5F4F2C5F1C
:101570003F4F4B33510509F429C1D9016D917C913D
:101580006A50710969307105D8F28091E2018232A6
:1015900031F4828193810A97099708F43EC18281D0
:1015A00093818957910983359105D0F48091E201A7
:1015B0008132B0F084819581CA97899788F49F0120
:1015C0002A5F3F4FC12CD12C760143E050E0D90176
:1015D0006D917C916A5071096930710508F436C1CA
:1015E000828193818C549109C59778F48091E201AE
:1015F000843031F4848195818097479708F480C1C5
:101600008091E201843408F062C18091E201863465
:1016100060F1828193810C970B9708F4B3C125C0C8
:10162000D90112966D917C9113976E5171096731B2
:10163000710508F0C2C1D701C601880F991FAA1F02
:10164000BB1F6C017D016894C0F84E5F5F4F2C5F3B
:101650003F4F4534510509F4BFC1D9016D917C91CB
:101660006C5071096B307105D8F28091E2018835B8
:1016700040F082819381855891098B35910508F45A
:10168000C2C18091E2018032E1F4828193810697A8
:101690000697B8F4848195810997099790F49F0182
:1016A0002A5F3F4FBF01625C7F4FC12CD12C760176
:1016B000D9014D915C91465051094630510508F4CD
:1016C000BEC18EA59FA59DAB8CAB06970CF4DFCC5D
:1016D0008F010A5F1F4FB5ECCB2EBDE9DB2EBCE1BD
:1016E000EB2EB1E8FB2E83E0282E312CD8016D9132
:1016F0007C91F8013497A080B18080E090E00E9456
:101700000C122B013C01B50180E090E00E940C120C
:101710004B015C012DEC3CEC4CE45FE30E946D124C
:101720009B01AC01C301B2010E94071287FD17C0E3
:101730002DEC3CEC4CE45FE3C301B2010E946D125E
:101740009B01AC01C501B4010E940712E82F880F6C
:10175000FF0BEE27FF0FEE1FFF27319602C0E0E0E0
:10176000F0E0A701960163E971E080E091E00E945A
:101770002B136F01FF0FEE08FF08C626D726E826B9
:10178000F926BFEF2B1A3B0A0E5F1F4FECA9FDA9EC
:101790002E163F0609F0AACFCEA2DFA2E8A6F9A630
:1017A00080E290E09BA78AA78FEF9FEFB7CE84815E
:1017B0009581CA97899708F0E8CE9F012A5F3F4F2D
:1017C000C12CD12C760143E050E0D7CE9F012A589E
:1017D0003F4FD9012D913C912A50310929303105D3
:1017E00008F0D3CE2CE130E03BA72AA7CEA2DFA29F
:1017F000E8A6F9A68AE090E091CED90112966D9103
:101800007C911397665071096730710508F0BDCE61
:10181000CC0CDD1CEE1CFF1CA8CE2091E201CF01F8
:10182000820F911D820F911DDC0112978D919C9169
:101830000A97099708F0B3CE1BA61AA68FEF9FEF61
:10184000DC018EA39FA3A8A7B9A72DC1D901129629
:101850006D917C911397665171096131710538F56D
:10186000D701C601880F991FAA1FBB1F6C017D01FC
:101870006894C0F84E5F5F4F2C5F3F4F4332510575
:1018800009F0A5CE9F012A5B3F4FD9012D913C91D4
:101890002A5031092930310508F0A2CE20E130E08C
:1018A0003BA72AA7CEA2DFA2E8A6F9A6FCC0D901D1
:1018B00012966D917C91139766507109673071058E
:1018C00008F08ECECC0CDD1CEE1CFF1CD3CF848127
:1018D000958189549109C39708F097CE9F012A5F9B
:1018E0003F4FBF016A577F4FC12CD12C7601D901E0
:1018F0004D915C91495051094930510588F085CE90
:10190000868197810997099708F07ACE1BA61AA6B7
:101910008FEF9FEFDC018EA39FA3A8A7B9A7C6C036
:10192000D90112964D915C9113974651510941315D
:101930005105C0F4D701C601880F991FAA1FBB1F0C
:101940006C017D016894C0F82C5F3F4F2617370764
:1019500071F620E230E03BA72AA7CEA2DFA2E8A6DC
:10196000F9A6A4C0D90112964D915C9113974650E7
:1019700051094730510508F048CECC0CDD1CEE1C57
:10198000FF1CE2CF848195810997099708F06DCEFD
:10199000868197818C974F9708F067CE80859185D7
:1019A00089974D9708F061CE9F01265F3F4FC12C6C
:1019B000D12C760145E050E050CE12966D917C918D
:1019C0001397695071096930710508F04ECECC0C3F
:1019D000DD1CEE1CFF1C39CE9F0126573F4FD9015D
:1019E0002D913C912C5031092B30310508F03DCE22
:1019F00020E230E03BA72AA7CEA2DFA2E8A6F9A604
:101A000088E090E08BCD84819581825491098E97F6
:101A100008F037CE8F01045C1F4F8DE190E040E06D
:101A200050E062CDD8012D913C91285131092231ED
:101A3000310510F0CB0160CD440F551F52CDD901B7
:101A400012964D915C9113974951510943315105BB
:101A5000F8F012964D915C91139749505109493015
:101A6000510508F02ECECC0CDD1CEE1CFF1C2C5FAB
:101A70003F4F2617370709F01BCE2EE030E03BA77B
:101A80002AA7CEA2DFA2E8A6F9A68FE090E046CD75
:101A9000D701C601880F991FAA1FBB1F6C017D01CA
:101AA0006894C0F8E4CF86E090E038CD87E090E01D
:101AB00035CDE1E4F1E01382128288EE93E0A0E0FC
:101AC000B0E084839583A683B7838AE091E0918315
:101AD000808385EC90E09587848784EC90E09787FD
:101AE000868780EC90E0918B808B81EC90E0938BEB
:101AF000828B82EC90E0958B848B86EC90E0978BC8
:101B0000868B118E128E138E148EEEEDF1E08BE02B
:101B10008183138208950F93083090F0982F872FB8
:101B2000762F652F542F432F322F22270850F4CFC2
:101B3000220F331F441F551F661F771F881F991FD1
:101B40000A95B2F70F91089597FB10F816940008C4
:101B50000F93083098F00850232F342F452F562F1D
:101B6000672F782F892F902DF4CF0594979587951F
:101B70007795679557954795379527950A95AAF7CD
:101B80000F910895EE0FFF1F0590F491E02D099439
:101B90005058BB27AA270E94E00D0C94F1120E9416
:101BA000E31238F00E94EA1220F039F49F3F19F452
:101BB00026F40C94E0120EF4E095E7FB0C94DA1294
:101BC000E92F0E94021358F3BA17620773078407BC
:101BD000950720F079F4A6F50C9424130EF4E09503
:101BE0000B2EBA2FA02D0B01B90190010C01CA01D7
:101BF000A0011124FF27591B99F0593F50F4503E82
:101C000068F11A16F040A22F232F342F4427585F73
:101C1000F3CF469537952795A795F0405395C9F78B
:101C20007EF41F16BA0B620B730B840BBAF0915043
:101C3000A1F0FF0FBB1F661F771F881FC2F70EC0E2
:101C4000BA0F621F731F841F48F4879577956795B5
:101C5000B795F7959E3F08F0B0CF9395880F08F0A1
:101C60009927EE0F9795879508950E94490E0C9439
:101C7000F1120E94EA1258F00E94E31240F029F497
:101C80005F3F29F00C94DA1251110C9425130C9437
:101C9000E0120E94021368F39923B1F3552391F3E4
:101CA000951B550BBB27AA2762177307840738F0CB
:101CB0009F5F5F4F220F331F441FAA1FA9F335D028
:101CC0000E2E3AF0E0E832D091505040E695001CDC
:101CD000CAF72BD0FE2F29D0660F771F881FBB1F96
:101CE000261737074807AB07B0E809F0BB0B802D74
:101CF000BF01FF2793585F4F3AF09E3F510578F0A0
:101D00000C94DA120C9425135F3FE4F3983ED4F35D
:101D1000869577956795B795F7959F5FC9F7880F73
:101D2000911D9695879597F90895E1E0660F771FC5
:101D3000881FBB1F621773078407BA0720F0621B56
:101D4000730B840BBA0BEE1F88F7E09508950E9481
:101D5000AE0E6894B1110C94251308950E940A13D5
:101D600088F09F5798F0B92F9927B751B0F0E1F05C
:101D7000660F771F881F991F1AF0BA95C9F714C00C
:101D8000B13091F00E942413B1E008950C94241313
:101D9000672F782F8827B85F39F0B93FCCF3869545
:101DA00077956795B395D9F73EF4909580957095A2
:101DB00061957F4F8F4F9F4F0895CF93DF93823070
:101DC000910510F482E090E0E091BC02F091BD0238
:101DD00020E030E0C0E0D0E0309711F14081518147
:101DE00048175907C0F04817590761F48281938159
:101DF000209719F09B838A832BC09093BD02809318
:101E0000BC0226C02115310519F04217530718F4FA
:101E10009A01BE01DF01EF010280F381E02DDCCFEA
:101E20002115310509F1281B390B2430310590F4B7
:101E300012968D919C9113976115710521F0FB010C
:101E40009383828304C09093BD028093BC02FD0102
:101E5000329644C0FD01E20FF31F8193919322500B
:101E600031092D933C933AC02091BA023091BB02C4
:101E7000232B41F420910201309103013093BB02E6
:101E80002093BA0220910001309101012115310502
:101E900041F42DB73EB74091040150910501241B38
:101EA000350BE091BA02F091BB02E217F307A0F400
:101EB0002E1B3F0B2817390778F0AC014E5F5F4FA0
:101EC0002417350748F04E0F5F1F5093BB02409315
:101ED000BA028193919302C0E0E0F0E0CF01DF917C
:101EE000CF9108950F931F93CF93DF93009709F439
:101EF0008CC0FC013297138212820091BC021091B7
:101F0000BD020115110581F420813181820F931FDB
:101F10002091BA023091BB022817390779F5F09366
:101F2000BB02E093BA0271C0D80140E050E0AE17A6
:101F3000BF0750F412962D913C911397AD012115D6
:101F4000310509F1D901F3CF9D01DA0133832283F1
:101F500060817181860F971F8217930769F4EC01E6
:101F600028813981260F371F2E5F3F4F3183208311
:101F70008A819B8193838283452B29F4F093BD0250
:101F8000E093BC0242C01396FC93EE931297ED01CE
:101F9000499159919E01240F351FE217F30771F4FF
:101FA00080819181840F951F029611969C938E9348
:101FB0008281938113969C938E931297E0E0F0E0D8
:101FC000D80112968D919C911397009719F0F80102
:101FD0008C01F6CF8D919C9198012E5F3F4F820F1F
:101FE000931F2091BA023091BB022817390769F478
:101FF000309729F41092BD021092BC0202C01382E5
:1020000012821093BB020093BA02DF91CF911F910D
:102010000F910895A0E0B0E0E0E1F0E10C946C13C2
:10202000EC01009721F4CB010E94DD0EB8C0FC0149
:10203000E60FF71F9C0122503109E217F30708F45D
:10204000ACC0D9010D911C91119706171707B0F07C
:102050000530110508F49FC0C8010497861797073B
:1020600008F499C002501109061B170B0193119334
:102070006D937C93CF010E94720F8DC05B01A01AFB
:10208000B10A4C01800E911EA091BC02B091BD021C
:1020900040E050E0E12CF12C109709F44AC0A8155B
:1020A000B905D1F56D907C901197630182E0C80E5F
:1020B000D11CCA14DB0480F1A3014A195B096A012F
:1020C00082E0C80ED11C1296BC9012971396AC9168
:1020D000B5E0CB16D10440F0B282A3835183408394
:1020E000D9016D937C930AC00E5F1F4FC301800F0F
:1020F000911FF90191838083EB2DFA2FE114F104F4
:1021000031F0D7011396FC93EE93129744C0F093ED
:10211000BD02E093BC023FC08D919C91119748177E
:10212000590708F4AC017D0112960D90BC91A02DC9
:10213000B3CF8091BA029091BB0288159905E1F462
:1021400046175707C8F4809100019091010100974C
:1021500041F48DB79EB74091040150910501841B55
:10216000950BE817F907C8F4F093BB02E093BA02A5
:10217000F901718360830FC0CB010E94DD0E7C01E9
:10218000009759F0A801BE010E94D910CE010E940B
:10219000720FC70104C0CE0102C080E090E0CDB74D
:1021A000DEB7EEE00C94881381E090E0F8940C9494
:1021B000AE13FB01DC0102C001900D924150504072
:1021C000D8F70895FB01DC0101900D920020E1F7A2
:1021D0000895A6E0B0E0EFEEF0E10C9468135C0126
:1021E0006B017A016115710519F0DB018D939C93E8
:1021F000E114F10429F0C7010297839708F0DCC0CD
:102200003501BFEF6B1A7B0AF5011081812F90E039
:102210000E94FB11892B11F05301F2CF1D3249F4BA
:102220003501F2E06F0E711CD50111961C9101E091
:1022300009C01B3231F43501B2E06B0E711CF5019F
:10224000118100E0E114F10409F4C4C0F0E1EF16DB
:10225000F10489F4103399F5D3018C918F7D883581
:1022600009F0B2C011961C91B2E06B0E711C0260B5
:1022700050E1E52EF12CEAE0EE16F10409F4B0C0CD
:10228000F0E1EF16F104D9F028E0E216F10451F480
:1022900038E0E32EF12C88248A94982CA82C4FE166
:1022A000B42E13C06FEF7FEFCB0197010F2C000C02
:1022B000440B550B0E943B1349015A0106C0882468
:1022C0008A94982CA82C2FE0B22E7E826D8260E03A
:1022D00020E030E0A90127010F2C000C66087708E8
:1022E0002D803E80E0EDE10FEA3060F08FEB810F52
:1022F0008A3110F4E9EC05C08FE9810F8A3190F53D
:10230000E9EAE10F8E2F90E08E159F055CF56F3F97
:1023100009F182169306A406B506D8F0C301B201EE
:102320000E942B132E2F30E040E050E029833A83A7
:102330004B835C83260F371F481F591F89819A8161
:10234000AB81BC81281739074A075B0710F061E0B1
:1023500001C06FEFED81FE813196FE83ED83D101E7
:102360001C91BECFC114D10489F0662339F08D8150
:102370009E810197F6019183808308C001FF06C00A
:102380008D819E810297D6018D939C9300FF07C09B
:1023900050954095309521953F4F4F4F5F4F67FFC8
:1023A00010C082E290E09093BF028093BE026FEF74
:1023B0007FEF8FEF9FEF1BC060E070E080E090E068
:1023C00016C0B901CA0113C010E3E114F10409F405
:1023D0005FCF51CF103309F43FCF9AE0E92EF12CB3
:1023E00089E9882E982CA82C89E1B82E6ECF2696E4
:1023F000E2E10C94841391110C940412803219F0D0
:1024000089508550C8F708959927882708950E9414
:10241000491208F481E00895E89409C097FB3EF45E
:1024200090958095709561957F4F8F4F9F4F992321
:10243000A9F0F92F96E9BB279395F695879577959F
:102440006795B795F111F8CFFAF4BB0F11F460FF5F
:102450001BC06F5F7F4F8F4F9F4F16C0882311F0B7
:1024600096E911C0772321F09EE8872F762F05C0CB
:10247000662371F096E8862F70E060E02AF09A9566
:10248000660F771F881FDAF7880F9695879597F95B
:102490000895990F0008550FAA0BE0E8FEEF1616F5
:1024A0001706E807F907C0F012161306E407F50748
:1024B00098F0621B730B840B950B39F40A2661F0BC
:1024C000232B242B252B21F408950A2609F4A1405F
:1024D000A6958FEF811D811D08950E9480120C9496
:1024E000F1120E94E31238F00E94EA1220F09523C4
:1024F00011F00C94DA120C94E01211240C942513B0
:102500000E94021370F3959FC1F3950F50E0551F81
:10251000629FF001729FBB27F00DB11D639FAA2738
:10252000F00DB11DAA1F649F6627B00DA11D661F87
:10253000829F2227B00DA11D621F739FB00DA11DA8
:10254000621F839FA00D611D221F749F3327A00D62
:10255000611D231F849F600D211D822F762F6A2FFE
:1025600011249F5750409AF0F1F088234AF0EE0F63
:10257000FF1FBB1F661F771F881F91505040A9F790
:102580009E3F510580F00C94DA120C9425135F3FA6
:10259000E4F3983ED4F3869577956795B795F795CC
:1025A000E7959F5FC1F7FE2B880F911D9695879544
:1025B00097F9089597F99F6780E870E060E00895C3
:1025C0009FEF80EC089500240A941616170618064B
:1025D0000906089500240A94121613061406050627
:1025E0000895092E0394000C11F4882352F0BB0FB8
:1025F00040F4BF2B11F460FF04C06F5F7F4F8F4F1B
:102600009F4F089557FD9058440F551F59F05F3F55
:1026100071F04795880F97FB991F61F09F3F79F004
:1026200087950895121613061406551FF2CF469586
:10263000F1DF08C0161617061806991FF1CF869508
:102640007105610508940895E894BB2766277727EC
:10265000CB0197F90895DB018F939F930E945D133F
:10266000BF91AF91A29F800D911DA39F900DB29F2E
:10267000900D11240895A1E21A2EAA1BBB1BFD0187
:102680000DC0AA1FBB1FEE1FFF1FA217B307E40751
:10269000F50720F0A21BB30BE40BF50B661F771FA9
:1026A000881F991F1A9469F7609570958095909589
:1026B0009B01AC01BD01CF0108950E949F13A59F0E
:1026C000900DB49F900DA49F800D911D112408952D
:1026D0002F923F924F925F926F927F928F929F9232
:1026E000AF92BF92CF92DF92EF92FF920F931F9320
:1026F000CF93DF93CDB7DEB7CA1BDB0B0FB6F894D1
:10270000DEBF0FBECDBF09942A88398848885F8410
:102710006E847D848C849B84AA84B984C884DF8081
:10272000EE80FD800C811B81AA81B981CE0FD11D65
:102730000FB6F894DEBF0FBECDBFED010895A29F86
:10274000B001B39FC001A39F700D811D1124911D85
:10275000B29F700D811D1124911D0895F894FFCF33
:102760000000C00280000000000010018C00D900B1
:10277000B700CB0057015374617274656400496EF1
:10278000697469616C697A6564204952546573742F
:10279000000D0A00526573756D696E670030780030
:00000001FF
