:100000000C946C000C9494000C9494000C94940048
:100010000C9494000C9494000C9494000C94940010
:100020000C9494000C9494000C9494000C94940000
:100030000C9494000C9494000C9494000C949400F0
:100040000C943A050C9494000C94E8020C94C202AF
:100050000C9494000C9494000C9494000C949400D0
:100060000C9494000C9494000001020304051112F6
:10007000131415160A0B0C0D0E0F000000002400BF
:1000800027002A0000000000250028002B000000A7
:1000900000002300260029000404040404040404CE
:1000A0000202020202020303030303030102040823
:1000B00010204080010204081020010204081020D2
:1000C0000000000800020100000304070000000017
:1000D00000000000A409A00911241FBECFEFD8E042
:1000E000DEBFCDBF11E0A0E0B1E0E6ECF7E102C079
:1000F00005900D92AA37B107D9F722E0AAE7B1E03F
:1001000001C01D92A533B207E1F710E0CBE6D0E0C5
:1001100004C02197FE010E94300ACA36D107C9F7F0
:100120000E9484050C94D60B0C940000CF92DF92B1
:10013000EF92FF920F931F93CF93DF936C017A019D
:100140008B01C0E0D0E0CE15DF0589F0D8016D91BC
:100150008D01D601ED91FC910190F081E02DC60159
:100160000995892B11F47E0102C02196ECCFC701BD
:10017000DF91CF911F910F91FF90EF90DF90CF9083
:100180000895FC01918D828D981761F0828DDF01B9
:10019000A80FB11D5D968C91928D9F5F9F73928F7A
:1001A00090E008958FEF9FEF0895FC01918D828D6F
:1001B000981731F0828DE80FF11D858D90E008953C
:1001C0008FEF9FEF0895FC01918D228D892F90E094
:1001D000805C9F4F821B91098F73992708958FE749
:1001E00091E00E94E30021E0892B09F420E0822FB6
:1001F0000895FC01848DDF01A80FB11DA35ABF4FE4
:100200002C91848D90E001968F739927848FA68915
:10021000B7892C93A089B1898C9180648C93938D3C
:10022000848D981306C00288F389E02D80818F7D2C
:1002300080830895EF92FF920F931F93CF93DF93E4
:10024000EC0181E0888F9B8D8C8D981305C0E88927
:10025000F989808185FD24C0F62E0B8D10E00F5F9B
:100260001F4F0F731127E02E8C8DE8120CC00FB6B4
:1002700007FCFACFE889F989808185FFF5CFCE01A7
:100280000E94F900F1CF8B8DFE01E80FF11DE35ABA
:10029000FF4FF0820B8FEA89FB898081806207C063
:1002A000EE89FF896083E889F98980818064808391
:1002B00081E090E0DF91CF911F910F91FF90EF903F
:1002C0000895CF93DF93EC01888D8823C9F0EA89E4
:1002D000FB89808185FD05C0A889B9898C9186FD3F
:1002E0000FC00FB607FCF5CF808185FFF2CFA8893C
:1002F000B9898C9185FFEDCFCE010E94F900E7CF3F
:10030000DF91CF91089580E090E0892B29F00E9441
:10031000EF0081110C94000008958EBD00000DB413
:1003200007FEFDCF8EB50895CF93C82F682F8FE7B6
:1003300091E00E941A018C2FCC0F990BCF91089558
:100340002CB52F7D2CBD2CB5237F2CBD2CB52C7F3F
:100350002CBD2DB52E7F2DBDFC0181810C94580440
:100360001F93CF93DF93EC0160E070E00E94A00147
:1003700081EE0E948D01182F61E070E0CE010E9495
:10038000A001812FDF91CF911F9108951F93CF93EB
:10039000DF93EC0160E070E00E94A00182EE0E9419
:1003A0008D01182F61E070E0CE010E94A001812F25
:1003B000DF91CF911F910895CF93DF93EC0160E01F
:1003C00088810E945804CE010E94B001CE01DF91C5
:1003D000CF910C94C601FF920F931F93CF93DF939D
:1003E0001F92CDB7DEB78C01F62E60E070E0498336
:1003F0000E94A0018F2D8F7180620E948D01F82EC6
:100400004981842F0E948D0161E070E0C8010E9443
:10041000A0018F2D0F90DF91CF911F910F91FF9031
:100420000895CF92DF92EF92FF920F931F93CF9395
:10043000DF9300D0CDB7DEB77C01062F142F60E02C
:1004400070E029835A830E94A001802F8F718062FF
:100450000E948D01082FC12E5A81D52E2981120F9D
:100460001C1531F0F60181916F010E948D01F8CFCA
:1004700061E070E0C7010E94A001802F0F900F90F3
:10048000DF91CF911F910F91FF90EF90DF90CF9070
:1004900008951F93CF93DF93EC01162F60E070E077
:1004A0000E94A001812F8F710E948D018FEF0E9409
:1004B0008D01182F61E070E0CE010E94A001812F14
:1004C000DF91CF911F9108950F931F93CF93DF93E7
:1004D0008C01C62FD0E0FE01E259FF4F6491FC0170
:1004E00044810E94EB0162E0C8010E944902FE01C2
:1004F000E859FF4FE49141E050E001C0440FEA9514
:10050000EAF7482B62E0C801DF91CF911F910F916C
:100510000C94EB01CF93DF93EC0160E00E94490261
:10052000482F436060E0CE010E94EB0140E767E0A6
:10053000CE010E94EB01288539854A855B856C8553
:100540007D858E859F85A0E00E94240A41F025E0EC
:10055000AE01485F5F4F6AE0CE010E941102CE01FA
:100560000E94C601CE010E94B00161E088810E9414
:10057000580483E092E00197F1F7DF91CF9108955D
:100580000E94360A1F920F920FB60F9211242F93DA
:100590003F934F935F936F937F938F939F93AF930B
:1005A000BF93EF93FF938FE791E00E94F900FF91D3
:1005B000EF91BF91AF919F918F917F916F915F91DB
:1005C0004F913F912F910F900FBE0F901F90189554
:1005D0001F920F920FB60F9211242F938F939F9318
:1005E000EF93FF93E0918F01F09190018081E09172
:1005F0009501F091960182FD12C090818091980141
:100600008F5F8F7320919901821751F0E0919801CB
:10061000F0E0E158FE4F958F8093980101C08081F2
:10062000FF91EF919F918F912F910F900FBE0F909F
:100630001F901895CF93DF93EC018AE191E09983A5
:1006400088838A819B810E94DC018A819B81DF9162
:10065000CF910C94370BCF93DF93EC010E941A03D8
:10066000CE01DF91CF910C94370B833081F028F4C9
:10067000813099F08230A1F008958730A9F0883058
:10068000B9F08430D1F4809180008F7D03C08091D7
:1006900080008F7780938000089584B58F7702C0A3
:1006A00084B58F7D84BD08958091B0008F7703C09D
:1006B0008091B0008F7D8093B0000895009769F01D
:1006C000FC0101900020E9F73197AF01481B590B5D
:1006D000BC018FE791E00C94960080E090E00895D3
:1006E0008F929F92AF92BF920F931F93CF93DF93FE
:1006F000CDB7DEB7A1970FB6F894DEBF0FBECDBF62
:1007000019A2423008F44AE08E010F5D1F4F842E7B
:10071000912CA12CB12CA50194010E94020AE62F74
:10072000B901CA0101501109EA3014F4E05D01C0B9
:10073000E95CD801EC93232B242B252B61F7C8010E
:100740000E945E03A1960FB6F894DEBF0FBECDBF28
:10075000DF91CF911F910F91BF90AF909F908F909D
:100760000895CF92DF92EF92FF92CF93DF936B01C8
:100770007C014115510581F4E0917F01F0918001E8
:100780000190F081E02D8FE791E0DF91CF91FF9014
:10079000EF90DF90CF9009944A30510511F597FF03
:1007A0001FC0E0917F01F09180010190F081E02D68
:1007B0006DE28FE791E00995EC0166277727CB0181
:1007C0006C197D098E099F094AE00E9470038C0F05
:1007D0009D1FDF91CF91FF90EF90DF90CF90089514
:1007E0004AE0C701B601DF91CF91FF90EF90DF9013
:1007F000CF900C9470030C945E03CF93DF93AB0106
:10080000BC01990F880B990B0E94B103EC0187E2A0
:1008100091E00E945E038C0F9D1FDF91CF910895A0
:10082000CF93DF93282F30E0F901E054FF4F8491FC
:10083000F901E455FF4FD491F901E856FF4FC491F7
:10084000CC2391F081110E943503EC2FF0E0EE0FE4
:10085000FF1FE257FF4FA591B491EC91ED2381E08A
:1008600090E021F480E002C080E090E0DF91CF9141
:100870000895EF92FF920F931F93CF93DF937C0124
:100880008B01C0E1D7E2219751F0F70180810E94EE
:10089000100480179107B9F380E090E002C082E075
:1008A00090E0DF91CF911F910F91FF90EF9008950D
:1008B0001F93CF93DF93282F30E0F901E054FF4FCF
:1008C0008491F901E455FF4FD491F901E856FF4FA7
:1008D000C491CC23C9F0162F81110E943503EC2F4F
:1008E000F0E0EE0FFF1FEC57FF4FA591B4918FB7CB
:1008F000F894111105C09C91ED2FE095E92302C0F9
:10090000EC91ED2BEC938FBFDF91CF911F91089568
:10091000CF93DF9390E0FC01E455FF4F2491FC015D
:10092000E856FF4F8491882361F190E0880F991F6A
:10093000FC01E658FF4FC591D491FC01EC57FF4FE5
:10094000A591B491611109C09FB7F8948881209551
:1009500082238883EC912E230BC0623061F49FB711
:10096000F8943881822F809583238883EC912E2BF5
:100970002C939FBF06C08FB7F894E8812E2B288355
:100980008FBFDF91CF9108958E3008F08E50877021
:10099000806480937C0080917A00806480937A00E8
:1009A00080917A0086FDFCCF8091780020917900BB
:1009B00090E0922B08953FB7F89480912702909190
:1009C0002802A0912902B0912A0226B5A89B05C051
:1009D0002F3F19F00196A11DB11D3FBFBA2FA92FBE
:1009E000982F8827820F911DA11DB11DBC01CD013B
:1009F00042E0660F771F881F991F4A95D1F7089527
:100A00008F929F92AF92BF92CF92DF92EF92FF921E
:100A10006B017C010E94DB044B015C01C114D10419
:100A2000E104F104F1F00E94DB04DC01CB01881940
:100A30009909AA09BB09883E9340A105B10570F345
:100A400021E0C21AD108E108F10888EE880E83E09F
:100A5000981EA11CB11CC114D104E104F10419F7C2
:100A6000DDCFFF90EF90DF90CF90BF90AF909F9041
:100A70008F9008951F920F920FB60F9211242F930B
:100A80003F938F939F93AF93BF9380917B019091FE
:100A90007C01A0917D01B0917E013091260223E07E
:100AA000230F2D3720F40196A11DB11D05C026E8A6
:100AB000230F0296A11DB11D2093260280937B0176
:100AC00090937C01A0937D01B0937E0180912702D9
:100AD00090912802A0912902B0912A020196A11DAD
:100AE000B11D8093270290932802A0932902B0930E
:100AF0002A02BF91AF919F918F913F912F910F90BB
:100B00000FBE0F901F901895CF93DF93CDB7DEB730
:100B1000A1970FB6F894DEBF0FBECDBF789484B511
:100B2000826084BD84B5816084BD85B5826085BDE9
:100B300085B5816085BD80916E00816080936E0077
:100B40001092810080918100826080938100809169
:100B5000810081608093810080918000816080931A
:100B600080008091B10084608093B1008091B000DA
:100B700081608093B00080917A00846080937A00D5
:100B800080917A00826080937A0080917A008160FF
:100B900080937A0080917A00806880937A00109226
:100BA000C100E0918F01F091900182E08083E0919B
:100BB0008B01F0918C011082E0918D01F0918E01FA
:100BC00080E1808310929701E0919301F09194016C
:100BD00086E08083E0919101F091920180818061B3
:100BE0008083E0919101F0919201808188608083FF
:100BF000E0919101F0919201808180688083E09181
:100C00009101F091920180818F7D808360E070E09E
:100C100084E991E00E943B0A8EE191E00E945E032C
:100C200087E291E00E945E0300912302109124026A
:100C300061E0F80180810E94880461E0F80181810F
:100C40000E948804FFB6F89480917A01811127C030
:100C5000E2EAF0E08491E6EBF0E09491E82FF0E036
:100C6000EE0FFF1FE658FF4FA591B491EC91E923D9
:100C700021F461E08AE00E94580461E08AE00E9469
:100C800088048CB580618CBD8CB580648CBD61E0BE
:100C90008DE00E94880461E08BE00E9488048091CE
:100CA0007A018F5F80937A01FFBE60E0F801808156
:100CB0000E94580461E070E0C8010E94A00165E054
:100CC00070E080E090E00E9400054FE464E0C8011D
:100CD0000E94EB0166E0C8010E944902482F46606D
:100CE00066E0C8010E94EB0166E0C8010E9449026B
:100CF000F8011282877D8062F82E482F66E0C801D5
:100D00000E94EB0166E0C8010E9449028F1509F4B8
:100D100014C1F801128266E0C8010E944902F8017C
:100D20001282877DF82E482F66E0C8010E94EB01F1
:100D300066E0C8010E9449028F1511F0F801128285
:100D400060E0C8010E944902482F4C6060E0C80181
:100D50000E94EB0140E06CE1C8010E94EB0140E71A
:100D600067E0C8010E94EB014CE465E0C8010E9405
:100D7000EB01C8010E94C601C8010E94B001809128
:100D800023029091240224E0FC0124834FEF64E0CD
:100D90000E94EB0180912502882311F042ED01C0F1
:100DA00041EE30EF20EF90EF80EF009123021091A1
:100DB0002402498B3A8B2B8B9C8B8D8B1E8A1F8A2E
:100DC000188E25E0AE014F5E5F4F6AE0C8010E94B9
:100DD000110225E0AE014F5E5F4F60E1C8010E9445
:100DE0001102F8014481413208F040E261E1C8019A
:100DF0000E94EB0180912502882311F041EE01C091
:100E000042ED30EF20EF90EF80EF00912302109140
:100E1000240249873A872B879C878D871E861F86E9
:100E2000188AE5E7F0E0649125E0AE01475F5F4F87
:100E3000C8010E94110261E0C8010E946402809111
:100E400025028A32E1F4009123021091240282EDFE
:100E5000898390EF9A839B839C839D831E821F824C
:100E60001886E6E7F0E0649121E0AE014F5F5F4F46
:100E7000C8010E94110262E0C8010E9464028091D0
:100E80002302909124020E948A0260E088E00E947E
:100E9000880461E082E00E94880460E082E10E94B0
:100EA00088048AE291E00E945E0387E291E00E945A
:100EB0005E035E01F2E2AF0EB11C63E5662E62E0F6
:100EC000762E7E0129E1E20EF11C1E8E1F8E18A2E5
:100ED00019A2009123021091240260E070E0C80181
:100EE0000E94A0018FEF0E948D01D82E61E070E07A
:100EF000C8010E94A001D6FE1DC040E467E0C80101
:100F00000E94EB01D5FE1DC040E267E0C8010E94CF
:100F1000EB0117C061E070E0C8010E94A00167E129
:100F2000C8010E944902809125029E8D9817D9F12F
:100F30008A32C9F10E948301C8CF81E0F80183831E
:100F4000EACE0091230210912402F8018481482EF8
:100F5000853010F094E0492EF8019681911103C07C
:100F6000582E541801C0512C60E070E0C8010E9456
:100F7000A00181E60E948D01CE014E966C01FC011C
:100F80001F014A94FFEF4F1631F08FEF0E948D0141
:100F9000F1018193F5CF552009F4BCCF8FEF0E946A
:100FA0008D015A94F8CF81E491E00E94FB031F8DDC
:100FB00060E170E0812F012E000C990B0E94FD036F
:100FC0001E8E18A219A2113009F0AEC0F70125E05B
:100FD00011922A95E9F761E0809120020E9488042D
:100FE00060E0809120020E94580464E170E080E09B
:100FF00090E00E94000561E0809120020E94580468
:101000008FE090E00197F1F760E0809120020E946C
:10101000880460E070E080E292E00E943904892B4D
:1010200009F05FC061E070E080E292E00E94390464
:10103000892B09F056C057E0952E00E010E060E0E3
:1010400070E080E292E00E943904892B09F049C0E7
:101050000E94DB041B012C0161E070E080E292E061
:101060000E943904892BE9F50E94DB04DC01CB01E5
:1010700082199309A409B5098997A105B10590F0D2
:10108000F80143E0F695E7954A95E1F7EE0DFF1D6F
:1010900081E090E0092C01C0880F0A94EAF7908162
:1010A000892B8083992011F09A9402C037E0932E07
:1010B0000F5F1F4F0832110511F6298D30E08B8D1F
:1010C00090E04D8D50E0B901680F791F4617570722
:1010D00041F430931D0220931C0290931F028093D1
:1010E0001E028BE491E00E94FB0360911E0270914E
:1010F0001F02072E000C880B990B4AE050E00E945B
:10110000B10382E591E00E94FB036AE070E0809108
:101110001C0290911D020E94FD0380911E0288A373
:1011200080911C0289A337C0123089F488E00E94A4
:101130001004182F88A388E591E00E94FB0360E16A
:1011400070E0812F110F990B0E94FD0324C0133012
:1011500081F461E082E00E94580482E10E94C404AC
:10116000182F092F60E082E00E9458048FE591E07B
:1011700009C0143081F483E10E94C404182F092FA0
:1011800087E691E00E94FB036AE070E0812F902FD8
:101190000E94FD0318A38EE691E00E94FB038E01DE
:1011A000025E1F4F88E791E00E94FB03F801619106
:1011B0008F01062E000C770B880B990B40E10E94E3
:1011C00070030A151B0571F787E291E00E945E0328
:1011D00080912302909124020E94DC01009123025D
:1011E0001091240260E0C8010E9449028C7F482FC0
:1011F000426060E0C8010E94EB01C3010197F1F772
:10120000F8018481482E853010F024E0422EF80148
:101210009681911103C0582E541801C0512C60E0E2
:1012200070E0C8010E94A00180EA0E948D014A94EA
:10123000FFEF4F1621F0F60181916F01F6CFD52C0B
:10124000DD2029F080E00E948D01DA94F9CF61E081
:1012500070E0C8010E94A00161E0F80180810E9455
:10126000580487E390E00197F1F760E0F80180818E
:101270000E9458048FB7F89420907B0130907C0135
:1012800040907D0150907E018FBF60E070E0C8010A
:101290000E94A00188E00E948D01D82E8FEF0E944D
:1012A0008D0161E070E0C8010E94A0018D2D807366
:1012B000A1F42FB7F89480917B0190917C01A091CB
:1012C0007D01B0917E012FBF82199309A409B50950
:1012D000843F9140A105B105C0F240E767E0C80135
:1012E0000E94EB0186FB882780F9F801858388231B
:1012F00099F060E070E0C8010E94A00180E60E94C1
:101300008D018FEF0E948D01D82E61E070E0C80141
:101310000E94A001F801D78260E0C8010E94490242
:10132000482F4D7F60E0C8010E94EB01C8010E9478
:10133000B00180912302909124020E948A02FACD8A
:1013400081E292E00C941A031F93CF93DF93EFE7AF
:10135000F1E01382128288EE93E0A0E0B0E0848393
:101360009583A683B7838AE091E09183808385EC9F
:1013700090E09587848784EC90E09787868780EC5F
:1013800090E0918B808B81EC90E0938B828B82EC50
:1013900090E0958B848B86EC90E0978B868B118EFA
:1013A000128E138E148EC1E2D2E08AE191E099830D
:1013B000888311E01C8380E190E00E94A20AFC0176
:1013C00089E080838AE081831283138280E28483B0
:1013D000158216821086118612861386148615864B
:1013E00016861786FB83EA83ECE1F2E08FEF9FEF2E
:1013F000918380839383828387E08483DF91CF917D
:101400001F910895A1E21A2EAA1BBB1BFD010DC05E
:10141000AA1FBB1FEE1FFF1FA217B307E407F507A4
:1014200020F0A21BB30BE40BF50B661F771F881F80
:10143000991F1A9469F760957095809590959B0116
:10144000AC01BD01CF0108950024A7FD00942A1727
:10145000300540055005600570058005900508952C
:10146000EE0FFF1F0590F491E02D099481E090E0CC
:10147000F8940C94D60B0F931F93CF93DF930097A0
:1014800031F46115710519F480E090E03AC08B01E8
:10149000EC016EE070E081E090E00E94860AFC01C1
:1014A000892B91F380E883830115110571F013876F
:1014B000028781E8838380912B0290912C02892BF3
:1014C00021F4F0932C02E0932B022097C9F0D187EE
:1014D000C08783818260838380912D0290912E0248
:1014E000892B71F4F0932E02E0932D0280912F024C
:1014F00090913002892B21F4F0933002E0932F0277
:10150000CF01DF91CF911F910F9108950F931F93FA
:10151000CF93DF93869F8001879F100D969F100DBC
:101520001124C8010E94A20AEC01009729F0A80129
:1015300060E070E00E94CF0BCE01DF91CF911F9150
:101540000F910895CF93DF938230910510F482E0DC
:1015500090E0E0913302F091340220E030E0C0E00E
:10156000D0E0309711F14081518148175907C0F000
:101570004817590761F482819381209719F09B8362
:101580008A832BC0909334028093330226C02115A6
:10159000310519F04217530718F49A01BE01DF0113
:1015A000EF010280F381E02DDCCF2115310509F137
:1015B000281B390B2430310590F412968D919C91A3
:1015C00013976115710521F0FB019383828304C099
:1015D0009093340280933302FD01329644C0FD01A2
:1015E000E20FF31F81939193225031092D933C9385
:1015F0003AC02091310230913202232B41F42091E4
:101600000201309103013093320220933102209184
:101610000001309101012115310541F42DB73EB78C
:101620004091040150910501241B350BE0913102DA
:10163000F0913202E217F307A0F42E1B3F0B28179C
:10164000390778F0AC014E5F5F4F2417350748F03B
:101650004E0F5F1F5093320240933102819391935A
:1016600002C0E0E0F0E0CF01DF91CF9108950F9349
:101670001F93CF93DF93009709F48CC0FC0132973E
:101680001382128200913302109134020115110568
:1016900081F420813181820F931F2091310230919A
:1016A00032022817390779F5F0933202E0933102BC
:1016B00071C0D80140E050E0AE17BF0750F4129659
:1016C0002D913C911397AD012115310509F1D901F7
:1016D000F3CF9D01DA013383228360817181860F0C
:1016E000971F8217930769F4EC0128813981260F2F
:1016F000371F2E5F3F4F318320838A819B819383E5
:101700008283452B29F4F0933402E093330242C0E4
:101710001396FC93EE931297ED01499159919E0116
:10172000240F351FE217F30771F480819181840F34
:10173000951F029611969C938E93828193811396A6
:101740009C938E931297E0E0F0E0D80112968D9171
:101750009C911397009719F0F8018C01F6CF8D91A9
:101760009C9198012E5F3F4F820F931F2091310271
:10177000309132022817390769F4309729F4109212
:1017800034021092330202C013821282109332028A
:1017900000933102DF91CF911F910F910895DC01E9
:1017A00001C06D9341505040E0F7089510E0CBE642
:1017B000D0E004C0FE010E94300A2196CC36D10749
:0617C000C9F7F894FFCF09
:1017C600000035028000000000001A019600E300C8
:1017D600C100D5006101000000001A032B035374F9
:1017E600617274696E67000D0A00496E69746961F9
:1017F6006C697A656420546865726D6F7374617480
:1018060000636F6D6D616E643A200054656D703AC9
:10181600200048756D3A20006D6F76653A20004CC1
:10182600696768743A2000566F6C743A20005365F5
:0A1836006E64696E673A20005F00DF
:00000001FF
